{"contracts/UniswapInteractions.sol":{"UniswapInteractions":{"abi":[{"inputs":[],"stateMutability":"nonpayable","type":"constructor"},{"inputs":[],"name":"WETH","outputs":[{"internalType":"address","name":"","type":"address"}],"stateMutability":"view","type":"function"},{"inputs":[],"name":"WMATIC","outputs":[{"internalType":"address","name":"","type":"address"}],"stateMutability":"view","type":"function"},{"inputs":[],"name":"poolFee","outputs":[{"internalType":"uint24","name":"","type":"uint24"}],"stateMutability":"view","type":"function"},{"inputs":[],"name":"routerAddress","outputs":[{"internalType":"address","name":"","type":"address"}],"stateMutability":"view","type":"function"},{"inputs":[{"internalType":"uint256","name":"amountIn","type":"uint256"}],"name":"swapExactInputSingle","outputs":[{"internalType":"uint256","name":"amountOut","type":"uint256"}],"stateMutability":"nonpayable","type":"function"},{"inputs":[],"name":"swapRouter","outputs":[{"internalType":"contract ISwapRouter","name":"","type":"address"}],"stateMutability":"view","type":"function"},{"inputs":[],"name":"wethToken","outputs":[{"internalType":"contract IERC20","name":"","type":"address"}],"stateMutability":"view","type":"function"}],"evm":{"bytecode":{"linkReferences":{},"object":"60a060405273e592427a0aece92de3edee1f18e0157c0586156473ffffffffffffffffffffffffffffffffffffffff1660809073ffffffffffffffffffffffffffffffffffffffff1681525073d087ff96281dcf722aea82aca57e8545ea9e6c966000806101000a81548173ffffffffffffffffffffffffffffffffffffffff021916908373ffffffffffffffffffffffffffffffffffffffff1602179055503480156100ab57600080fd5b506080516108066100d5600039600081816102010152818161034b015261040701526108066000f3fe608060405234801561001057600080fd5b506004361061007d5760003560e01c80634d95cad91161005b5780634d95cad9146100dc57806373bd43ad146100fa578063ad5c46481461012a578063c31c9c07146101485761007d565b8063089fe6aa146100825780633268cc56146100a05780634b57b0be146100be575b600080fd5b61008a610166565b6040516100979190610447565b60405180910390f35b6100a861016c565b6040516100b591906104a3565b60405180910390f35b6100c6610184565b6040516100d3919061051d565b60405180910390f35b6100e46101a8565b6040516100f191906104a3565b60405180910390f35b610114600480360381019061010f9190610573565b6101c0565b60405161012191906105af565b60405180910390f35b6101326103ed565b60405161013f91906104a3565b60405180910390f35b610150610405565b60405161015d91906105eb565b60405180910390f35b6101f481565b73e592427a0aece92de3edee1f18e0157c0586156481565b60008054906101000a900473ffffffffffffffffffffffffffffffffffffffff1681565b739c3c9283d3e44854697cd22d3faa240cfb03288981565b60008060009054906101000a900473ffffffffffffffffffffffffffffffffffffffff1673ffffffffffffffffffffffffffffffffffffffff1663095ea7b37f0000000000000000000000000000000000000000000000000000000000000000846040518363ffffffff1660e01b815260040161023e929190610606565b6020604051808303816000875af115801561025d573d6000803e3d6000fd5b505050506040513d601f19601f820116820180604052508101906102819190610667565b50600060405180610100016040528073d087ff96281dcf722aea82aca57e8545ea9e6c9673ffffffffffffffffffffffffffffffffffffffff168152602001739c3c9283d3e44854697cd22d3faa240cfb03288973ffffffffffffffffffffffffffffffffffffffff1681526020016101f462ffffff1681526020013073ffffffffffffffffffffffffffffffffffffffff16815260200142815260200184815260200160008152602001600073ffffffffffffffffffffffffffffffffffffffff1681525090507f000000000000000000000000000000000000000000000000000000000000000073ffffffffffffffffffffffffffffffffffffffff1663414bf389826040518263ffffffff1660e01b81526004016103a29190610772565b6020604051808303816000875af11580156103c1573d6000803e3d6000fd5b505050506040513d601f19601f820116820180604052508101906103e591906107a3565b915050919050565b73d087ff96281dcf722aea82aca57e8545ea9e6c9681565b7f000000000000000000000000000000000000000000000000000000000000000081565b600062ffffff82169050919050565b61044181610429565b82525050565b600060208201905061045c6000830184610438565b92915050565b600073ffffffffffffffffffffffffffffffffffffffff82169050919050565b600061048d82610462565b9050919050565b61049d81610482565b82525050565b60006020820190506104b86000830184610494565b92915050565b6000819050919050565b60006104e36104de6104d984610462565b6104be565b610462565b9050919050565b60006104f5826104c8565b9050919050565b6000610507826104ea565b9050919050565b610517816104fc565b82525050565b6000602082019050610532600083018461050e565b92915050565b600080fd5b6000819050919050565b6105508161053d565b811461055b57600080fd5b50565b60008135905061056d81610547565b92915050565b60006020828403121561058957610588610538565b5b60006105978482850161055e565b91505092915050565b6105a98161053d565b82525050565b60006020820190506105c460008301846105a0565b92915050565b60006105d5826104ea565b9050919050565b6105e5816105ca565b82525050565b600060208201905061060060008301846105dc565b92915050565b600060408201905061061b6000830185610494565b61062860208301846105a0565b9392505050565b60008115159050919050565b6106448161062f565b811461064f57600080fd5b50565b6000815190506106618161063b565b92915050565b60006020828403121561067d5761067c610538565b5b600061068b84828501610652565b91505092915050565b61069d81610482565b82525050565b6106ac81610429565b82525050565b6106bb8161053d565b82525050565b6106ca81610462565b82525050565b610100820160008201516106e76000850182610694565b5060208201516106fa6020850182610694565b50604082015161070d60408501826106a3565b5060608201516107206060850182610694565b50608082015161073360808501826106b2565b5060a082015161074660a08501826106b2565b5060c082015161075960c08501826106b2565b5060e082015161076c60e08501826106c1565b50505050565b60006101008201905061078860008301846106d0565b92915050565b60008151905061079d81610547565b92915050565b6000602082840312156107b9576107b8610538565b5b60006107c78482850161078e565b9150509291505056fea26469706673582212202f2df09730620e171b5bfcd045229ec3d37660331bc424f2c7fa78e9ca20a32f64736f6c63430008130033","opcodes":"PUSH1 0xA0 PUSH1 0x40 MSTORE PUSH20 0xE592427A0AECE92DE3EDEE1F18E0157C05861564 PUSH20 0xFFFFFFFFFFFFFFFFFFFFFFFFFFFFFFFFFFFFFFFF AND PUSH1 0x80 SWAP1 PUSH20 0xFFFFFFFFFFFFFFFFFFFFFFFFFFFFFFFFFFFFFFFF AND DUP2 MSTORE POP PUSH20 0xD087FF96281DCF722AEA82ACA57E8545EA9E6C96 PUSH1 0x0 DUP1 PUSH2 0x100 EXP DUP2 SLOAD DUP2 PUSH20 0xFFFFFFFFFFFFFFFFFFFFFFFFFFFFFFFFFFFFFFFF MUL NOT AND SWAP1 DUP4 PUSH20 0xFFFFFFFFFFFFFFFFFFFFFFFFFFFFFFFFFFFFFFFF AND MUL OR SWAP1 SSTORE POP CALLVALUE DUP1 ISZERO PUSH2 0xAB JUMPI PUSH1 0x0 DUP1 REVERT JUMPDEST POP PUSH1 0x80 MLOAD PUSH2 0x806 PUSH2 0xD5 PUSH1 0x0 CODECOPY PUSH1 0x0 DUP2 DUP2 PUSH2 0x201 ADD MSTORE DUP2 DUP2 PUSH2 0x34B ADD MSTORE PUSH2 0x407 ADD MSTORE PUSH2 0x806 PUSH1 0x0 RETURN INVALID PUSH1 0x80 PUSH1 0x40 MSTORE CALLVALUE DUP1 ISZERO PUSH2 0x10 JUMPI PUSH1 0x0 DUP1 REVERT JUMPDEST POP PUSH1 0x4 CALLDATASIZE LT PUSH2 0x7D JUMPI PUSH1 0x0 CALLDATALOAD PUSH1 0xE0 SHR DUP1 PUSH4 0x4D95CAD9 GT PUSH2 0x5B JUMPI DUP1 PUSH4 0x4D95CAD9 EQ PUSH2 0xDC JUMPI DUP1 PUSH4 0x73BD43AD EQ PUSH2 0xFA JUMPI DUP1 PUSH4 0xAD5C4648 EQ PUSH2 0x12A JUMPI DUP1 PUSH4 0xC31C9C07 EQ PUSH2 0x148 JUMPI PUSH2 0x7D JUMP JUMPDEST DUP1 PUSH4 0x89FE6AA EQ PUSH2 0x82 JUMPI DUP1 PUSH4 0x3268CC56 EQ PUSH2 0xA0 JUMPI DUP1 PUSH4 0x4B57B0BE EQ PUSH2 0xBE JUMPI JUMPDEST PUSH1 0x0 DUP1 REVERT JUMPDEST PUSH2 0x8A PUSH2 0x166 JUMP JUMPDEST PUSH1 0x40 MLOAD PUSH2 0x97 SWAP2 SWAP1 PUSH2 0x447 JUMP JUMPDEST PUSH1 0x40 MLOAD DUP1 SWAP2 SUB SWAP1 RETURN JUMPDEST PUSH2 0xA8 PUSH2 0x16C JUMP JUMPDEST PUSH1 0x40 MLOAD PUSH2 0xB5 SWAP2 SWAP1 PUSH2 0x4A3 JUMP JUMPDEST PUSH1 0x40 MLOAD DUP1 SWAP2 SUB SWAP1 RETURN JUMPDEST PUSH2 0xC6 PUSH2 0x184 JUMP JUMPDEST PUSH1 0x40 MLOAD PUSH2 0xD3 SWAP2 SWAP1 PUSH2 0x51D JUMP JUMPDEST PUSH1 0x40 MLOAD DUP1 SWAP2 SUB SWAP1 RETURN JUMPDEST PUSH2 0xE4 PUSH2 0x1A8 JUMP JUMPDEST PUSH1 0x40 MLOAD PUSH2 0xF1 SWAP2 SWAP1 PUSH2 0x4A3 JUMP JUMPDEST PUSH1 0x40 MLOAD DUP1 SWAP2 SUB SWAP1 RETURN JUMPDEST PUSH2 0x114 PUSH1 0x4 DUP1 CALLDATASIZE SUB DUP2 ADD SWAP1 PUSH2 0x10F SWAP2 SWAP1 PUSH2 0x573 JUMP JUMPDEST PUSH2 0x1C0 JUMP JUMPDEST PUSH1 0x40 MLOAD PUSH2 0x121 SWAP2 SWAP1 PUSH2 0x5AF JUMP JUMPDEST PUSH1 0x40 MLOAD DUP1 SWAP2 SUB SWAP1 RETURN JUMPDEST PUSH2 0x132 PUSH2 0x3ED JUMP JUMPDEST PUSH1 0x40 MLOAD PUSH2 0x13F SWAP2 SWAP1 PUSH2 0x4A3 JUMP JUMPDEST PUSH1 0x40 MLOAD DUP1 SWAP2 SUB SWAP1 RETURN JUMPDEST PUSH2 0x150 PUSH2 0x405 JUMP JUMPDEST PUSH1 0x40 MLOAD PUSH2 0x15D SWAP2 SWAP1 PUSH2 0x5EB JUMP JUMPDEST PUSH1 0x40 MLOAD DUP1 SWAP2 SUB SWAP1 RETURN JUMPDEST PUSH2 0x1F4 DUP2 JUMP JUMPDEST PUSH20 0xE592427A0AECE92DE3EDEE1F18E0157C05861564 DUP2 JUMP JUMPDEST PUSH1 0x0 DUP1 SLOAD SWAP1 PUSH2 0x100 EXP SWAP1 DIV PUSH20 0xFFFFFFFFFFFFFFFFFFFFFFFFFFFFFFFFFFFFFFFF AND DUP2 JUMP JUMPDEST PUSH20 0x9C3C9283D3E44854697CD22D3FAA240CFB032889 DUP2 JUMP JUMPDEST PUSH1 0x0 DUP1 PUSH1 0x0 SWAP1 SLOAD SWAP1 PUSH2 0x100 EXP SWAP1 DIV PUSH20 0xFFFFFFFFFFFFFFFFFFFFFFFFFFFFFFFFFFFFFFFF AND PUSH20 0xFFFFFFFFFFFFFFFFFFFFFFFFFFFFFFFFFFFFFFFF AND PUSH4 0x95EA7B3 PUSH32 0x0 DUP5 PUSH1 0x40 MLOAD DUP4 PUSH4 0xFFFFFFFF AND PUSH1 0xE0 SHL DUP2 MSTORE PUSH1 0x4 ADD PUSH2 0x23E SWAP3 SWAP2 SWAP1 PUSH2 0x606 JUMP JUMPDEST PUSH1 0x20 PUSH1 0x40 MLOAD DUP1 DUP4 SUB DUP2 PUSH1 0x0 DUP8 GAS CALL ISZERO DUP1 ISZERO PUSH2 0x25D JUMPI RETURNDATASIZE PUSH1 0x0 DUP1 RETURNDATACOPY RETURNDATASIZE PUSH1 0x0 REVERT JUMPDEST POP POP POP POP PUSH1 0x40 MLOAD RETURNDATASIZE PUSH1 0x1F NOT PUSH1 0x1F DUP3 ADD AND DUP3 ADD DUP1 PUSH1 0x40 MSTORE POP DUP2 ADD SWAP1 PUSH2 0x281 SWAP2 SWAP1 PUSH2 0x667 JUMP JUMPDEST POP PUSH1 0x0 PUSH1 0x40 MLOAD DUP1 PUSH2 0x100 ADD PUSH1 0x40 MSTORE DUP1 PUSH20 0xD087FF96281DCF722AEA82ACA57E8545EA9E6C96 PUSH20 0xFFFFFFFFFFFFFFFFFFFFFFFFFFFFFFFFFFFFFFFF AND DUP2 MSTORE PUSH1 0x20 ADD PUSH20 0x9C3C9283D3E44854697CD22D3FAA240CFB032889 PUSH20 0xFFFFFFFFFFFFFFFFFFFFFFFFFFFFFFFFFFFFFFFF AND DUP2 MSTORE PUSH1 0x20 ADD PUSH2 0x1F4 PUSH3 0xFFFFFF AND DUP2 MSTORE PUSH1 0x20 ADD ADDRESS PUSH20 0xFFFFFFFFFFFFFFFFFFFFFFFFFFFFFFFFFFFFFFFF AND DUP2 MSTORE PUSH1 0x20 ADD TIMESTAMP DUP2 MSTORE PUSH1 0x20 ADD DUP5 DUP2 MSTORE PUSH1 0x20 ADD PUSH1 0x0 DUP2 MSTORE PUSH1 0x20 ADD PUSH1 0x0 PUSH20 0xFFFFFFFFFFFFFFFFFFFFFFFFFFFFFFFFFFFFFFFF AND DUP2 MSTORE POP SWAP1 POP PUSH32 0x0 PUSH20 0xFFFFFFFFFFFFFFFFFFFFFFFFFFFFFFFFFFFFFFFF AND PUSH4 0x414BF389 DUP3 PUSH1 0x40 MLOAD DUP3 PUSH4 0xFFFFFFFF AND PUSH1 0xE0 SHL DUP2 MSTORE PUSH1 0x4 ADD PUSH2 0x3A2 SWAP2 SWAP1 PUSH2 0x772 JUMP JUMPDEST PUSH1 0x20 PUSH1 0x40 MLOAD DUP1 DUP4 SUB DUP2 PUSH1 0x0 DUP8 GAS CALL ISZERO DUP1 ISZERO PUSH2 0x3C1 JUMPI RETURNDATASIZE PUSH1 0x0 DUP1 RETURNDATACOPY RETURNDATASIZE PUSH1 0x0 REVERT JUMPDEST POP POP POP POP PUSH1 0x40 MLOAD RETURNDATASIZE PUSH1 0x1F NOT PUSH1 0x1F DUP3 ADD AND DUP3 ADD DUP1 PUSH1 0x40 MSTORE POP DUP2 ADD SWAP1 PUSH2 0x3E5 SWAP2 SWAP1 PUSH2 0x7A3 JUMP JUMPDEST SWAP2 POP POP SWAP2 SWAP1 POP JUMP JUMPDEST PUSH20 0xD087FF96281DCF722AEA82ACA57E8545EA9E6C96 DUP2 JUMP JUMPDEST PUSH32 0x0 DUP2 JUMP JUMPDEST PUSH1 0x0 PUSH3 0xFFFFFF DUP3 AND SWAP1 POP SWAP2 SWAP1 POP JUMP JUMPDEST PUSH2 0x441 DUP2 PUSH2 0x429 JUMP JUMPDEST DUP3 MSTORE POP POP JUMP JUMPDEST PUSH1 0x0 PUSH1 0x20 DUP3 ADD SWAP1 POP PUSH2 0x45C PUSH1 0x0 DUP4 ADD DUP5 PUSH2 0x438 JUMP JUMPDEST SWAP3 SWAP2 POP POP JUMP JUMPDEST PUSH1 0x0 PUSH20 0xFFFFFFFFFFFFFFFFFFFFFFFFFFFFFFFFFFFFFFFF DUP3 AND SWAP1 POP SWAP2 SWAP1 POP JUMP JUMPDEST PUSH1 0x0 PUSH2 0x48D DUP3 PUSH2 0x462 JUMP JUMPDEST SWAP1 POP SWAP2 SWAP1 POP JUMP JUMPDEST PUSH2 0x49D DUP2 PUSH2 0x482 JUMP JUMPDEST DUP3 MSTORE POP POP JUMP JUMPDEST PUSH1 0x0 PUSH1 0x20 DUP3 ADD SWAP1 POP PUSH2 0x4B8 PUSH1 0x0 DUP4 ADD DUP5 PUSH2 0x494 JUMP JUMPDEST SWAP3 SWAP2 POP POP JUMP JUMPDEST PUSH1 0x0 DUP2 SWAP1 POP SWAP2 SWAP1 POP JUMP JUMPDEST PUSH1 0x0 PUSH2 0x4E3 PUSH2 0x4DE PUSH2 0x4D9 DUP5 PUSH2 0x462 JUMP JUMPDEST PUSH2 0x4BE JUMP JUMPDEST PUSH2 0x462 JUMP JUMPDEST SWAP1 POP SWAP2 SWAP1 POP JUMP JUMPDEST PUSH1 0x0 PUSH2 0x4F5 DUP3 PUSH2 0x4C8 JUMP JUMPDEST SWAP1 POP SWAP2 SWAP1 POP JUMP JUMPDEST PUSH1 0x0 PUSH2 0x507 DUP3 PUSH2 0x4EA JUMP JUMPDEST SWAP1 POP SWAP2 SWAP1 POP JUMP JUMPDEST PUSH2 0x517 DUP2 PUSH2 0x4FC JUMP JUMPDEST DUP3 MSTORE POP POP JUMP JUMPDEST PUSH1 0x0 PUSH1 0x20 DUP3 ADD SWAP1 POP PUSH2 0x532 PUSH1 0x0 DUP4 ADD DUP5 PUSH2 0x50E JUMP JUMPDEST SWAP3 SWAP2 POP POP JUMP JUMPDEST PUSH1 0x0 DUP1 REVERT JUMPDEST PUSH1 0x0 DUP2 SWAP1 POP SWAP2 SWAP1 POP JUMP JUMPDEST PUSH2 0x550 DUP2 PUSH2 0x53D JUMP JUMPDEST DUP2 EQ PUSH2 0x55B JUMPI PUSH1 0x0 DUP1 REVERT JUMPDEST POP JUMP JUMPDEST PUSH1 0x0 DUP2 CALLDATALOAD SWAP1 POP PUSH2 0x56D DUP2 PUSH2 0x547 JUMP JUMPDEST SWAP3 SWAP2 POP POP JUMP JUMPDEST PUSH1 0x0 PUSH1 0x20 DUP3 DUP5 SUB SLT ISZERO PUSH2 0x589 JUMPI PUSH2 0x588 PUSH2 0x538 JUMP JUMPDEST JUMPDEST PUSH1 0x0 PUSH2 0x597 DUP5 DUP3 DUP6 ADD PUSH2 0x55E JUMP JUMPDEST SWAP2 POP POP SWAP3 SWAP2 POP POP JUMP JUMPDEST PUSH2 0x5A9 DUP2 PUSH2 0x53D JUMP JUMPDEST DUP3 MSTORE POP POP JUMP JUMPDEST PUSH1 0x0 PUSH1 0x20 DUP3 ADD SWAP1 POP PUSH2 0x5C4 PUSH1 0x0 DUP4 ADD DUP5 PUSH2 0x5A0 JUMP JUMPDEST SWAP3 SWAP2 POP POP JUMP JUMPDEST PUSH1 0x0 PUSH2 0x5D5 DUP3 PUSH2 0x4EA JUMP JUMPDEST SWAP1 POP SWAP2 SWAP1 POP JUMP JUMPDEST PUSH2 0x5E5 DUP2 PUSH2 0x5CA JUMP JUMPDEST DUP3 MSTORE POP POP JUMP JUMPDEST PUSH1 0x0 PUSH1 0x20 DUP3 ADD SWAP1 POP PUSH2 0x600 PUSH1 0x0 DUP4 ADD DUP5 PUSH2 0x5DC JUMP JUMPDEST SWAP3 SWAP2 POP POP JUMP JUMPDEST PUSH1 0x0 PUSH1 0x40 DUP3 ADD SWAP1 POP PUSH2 0x61B PUSH1 0x0 DUP4 ADD DUP6 PUSH2 0x494 JUMP JUMPDEST PUSH2 0x628 PUSH1 0x20 DUP4 ADD DUP5 PUSH2 0x5A0 JUMP JUMPDEST SWAP4 SWAP3 POP POP POP JUMP JUMPDEST PUSH1 0x0 DUP2 ISZERO ISZERO SWAP1 POP SWAP2 SWAP1 POP JUMP JUMPDEST PUSH2 0x644 DUP2 PUSH2 0x62F JUMP JUMPDEST DUP2 EQ PUSH2 0x64F JUMPI PUSH1 0x0 DUP1 REVERT JUMPDEST POP JUMP JUMPDEST PUSH1 0x0 DUP2 MLOAD SWAP1 POP PUSH2 0x661 DUP2 PUSH2 0x63B JUMP JUMPDEST SWAP3 SWAP2 POP POP JUMP JUMPDEST PUSH1 0x0 PUSH1 0x20 DUP3 DUP5 SUB SLT ISZERO PUSH2 0x67D JUMPI PUSH2 0x67C PUSH2 0x538 JUMP JUMPDEST JUMPDEST PUSH1 0x0 PUSH2 0x68B DUP5 DUP3 DUP6 ADD PUSH2 0x652 JUMP JUMPDEST SWAP2 POP POP SWAP3 SWAP2 POP POP JUMP JUMPDEST PUSH2 0x69D DUP2 PUSH2 0x482 JUMP JUMPDEST DUP3 MSTORE POP POP JUMP JUMPDEST PUSH2 0x6AC DUP2 PUSH2 0x429 JUMP JUMPDEST DUP3 MSTORE POP POP JUMP JUMPDEST PUSH2 0x6BB DUP2 PUSH2 0x53D JUMP JUMPDEST DUP3 MSTORE POP POP JUMP JUMPDEST PUSH2 0x6CA DUP2 PUSH2 0x462 JUMP JUMPDEST DUP3 MSTORE POP POP JUMP JUMPDEST PUSH2 0x100 DUP3 ADD PUSH1 0x0 DUP3 ADD MLOAD PUSH2 0x6E7 PUSH1 0x0 DUP6 ADD DUP3 PUSH2 0x694 JUMP JUMPDEST POP PUSH1 0x20 DUP3 ADD MLOAD PUSH2 0x6FA PUSH1 0x20 DUP6 ADD DUP3 PUSH2 0x694 JUMP JUMPDEST POP PUSH1 0x40 DUP3 ADD MLOAD PUSH2 0x70D PUSH1 0x40 DUP6 ADD DUP3 PUSH2 0x6A3 JUMP JUMPDEST POP PUSH1 0x60 DUP3 ADD MLOAD PUSH2 0x720 PUSH1 0x60 DUP6 ADD DUP3 PUSH2 0x694 JUMP JUMPDEST POP PUSH1 0x80 DUP3 ADD MLOAD PUSH2 0x733 PUSH1 0x80 DUP6 ADD DUP3 PUSH2 0x6B2 JUMP JUMPDEST POP PUSH1 0xA0 DUP3 ADD MLOAD PUSH2 0x746 PUSH1 0xA0 DUP6 ADD DUP3 PUSH2 0x6B2 JUMP JUMPDEST POP PUSH1 0xC0 DUP3 ADD MLOAD PUSH2 0x759 PUSH1 0xC0 DUP6 ADD DUP3 PUSH2 0x6B2 JUMP JUMPDEST POP PUSH1 0xE0 DUP3 ADD MLOAD PUSH2 0x76C PUSH1 0xE0 DUP6 ADD DUP3 PUSH2 0x6C1 JUMP JUMPDEST POP POP POP POP JUMP JUMPDEST PUSH1 0x0 PUSH2 0x100 DUP3 ADD SWAP1 POP PUSH2 0x788 PUSH1 0x0 DUP4 ADD DUP5 PUSH2 0x6D0 JUMP JUMPDEST SWAP3 SWAP2 POP POP JUMP JUMPDEST PUSH1 0x0 DUP2 MLOAD SWAP1 POP PUSH2 0x79D DUP2 PUSH2 0x547 JUMP JUMPDEST SWAP3 SWAP2 POP POP JUMP JUMPDEST PUSH1 0x0 PUSH1 0x20 DUP3 DUP5 SUB SLT ISZERO PUSH2 0x7B9 JUMPI PUSH2 0x7B8 PUSH2 0x538 JUMP JUMPDEST JUMPDEST PUSH1 0x0 PUSH2 0x7C7 DUP5 DUP3 DUP6 ADD PUSH2 0x78E JUMP JUMPDEST SWAP2 POP POP SWAP3 SWAP2 POP POP JUMP INVALID LOG2 PUSH5 0x6970667358 0x22 SLT KECCAK256 0x2F 0x2D CREATE SWAP8 ADDRESS PUSH3 0xE171B JUMPDEST 0xFC 0xD0 GASLIMIT 0x22 SWAP15 0xC3 0xD3 PUSH23 0x60331BC424F2C7FA78E9CA20A32F64736F6C6343000813 STOP CALLER "},"methodIdentifiers":{"WETH()":"ad5c4648","WMATIC()":"4d95cad9","poolFee()":"089fe6aa","routerAddress()":"3268cc56","swapExactInputSingle(uint256)":"73bd43ad","swapRouter()":"c31c9c07","wethToken()":"4b57b0be"}}}}}