{"contracts/CompoudDeposit.sol":{"CompoundDeposit":{"abi":[{"inputs":[],"name":"ALCHEMY_URL","outputs":[{"internalType":"string","name":"","type":"string"}],"stateMutability":"view","type":"function"},{"inputs":[],"name":"COMPOUND_CDAI_ADDRESS","outputs":[{"internalType":"address","name":"","type":"address"}],"stateMutability":"view","type":"function"},{"inputs":[],"name":"COMPOUND_COMPTROLLER_ADDRESS","outputs":[{"internalType":"address","name":"","type":"address"}],"stateMutability":"view","type":"function"},{"inputs":[{"internalType":"uint256","name":"_amount","type":"uint256"}],"name":"depositToCompound","outputs":[],"stateMutability":"nonpayable","type":"function"}],"evm":{"bytecode":{"linkReferences":{},"object":"608060405234801561001057600080fd5b506109c1806100206000396000f3fe608060405234801561001057600080fd5b506004361061004c5760003560e01c80631002a3ac14610051578063300c09821461006f578063a570da041461008b578063d32e33e2146100a9575b600080fd5b6100596100c7565b6040516100669190610490565b60405180910390f35b610089600480360381019061008491906104fc565b610100565b005b6100936103d0565b6040516100a0919061056a565b60405180910390f35b6100b16103e8565b6040516100be919061056a565b60405180910390f35b6040518060400160405280601281526020017f3c796f75725f416c6368656d795f55524c3e000000000000000000000000000081525081565b6000736b175474e89094c44da98b954eedeac495271d0f90508073ffffffffffffffffffffffffffffffffffffffff1663095ea7b3735d3a536e4d6dbd6114cc1ead35777bab948e3643846040518363ffffffff1660e01b8152600401610168929190610594565b6020604051808303816000875af1158015610187573d6000803e3d6000fd5b505050506040513d601f19601f820116820180604052508101906101ab91906105f5565b506000600167ffffffffffffffff8111156101c9576101c8610622565b5b6040519080825280602002602001820160405280156101f75781602001602082028036833780820191505090505b509050735d3a536e4d6dbd6114cc1ead35777bab948e36438160008151811061022357610222610651565b5b602002602001019073ffffffffffffffffffffffffffffffffffffffff16908173ffffffffffffffffffffffffffffffffffffffff1681525050733d9819210a31b4961b30ef54be2aed79b9c9cd3b73ffffffffffffffffffffffffffffffffffffffff1663c2998238826040518263ffffffff1660e01b81526004016102aa919061073e565b6000604051808303816000875af11580156102c9573d6000803e3d6000fd5b505050506040513d6000823e3d601f19601f820116820180604052508101906102f2919061088e565b506000735d3a536e4d6dbd6114cc1ead35777bab948e3643905060008173ffffffffffffffffffffffffffffffffffffffff1663a0712d68866040518263ffffffff1660e01b815260040161034791906108d7565b6020604051808303816000875af1158015610366573d6000803e3d6000fd5b505050506040513d601f19601f8201168201806040525081019061038a91906108f2565b146103ca576040517f08c379a00000000000000000000000000000000000000000000000000000000081526004016103c19061096b565b60405180910390fd5b50505050565b735d3a536e4d6dbd6114cc1ead35777bab948e364381565b733d9819210a31b4961b30ef54be2aed79b9c9cd3b81565b600081519050919050565b600082825260208201905092915050565b60005b8381101561043a57808201518184015260208101905061041f565b60008484015250505050565b6000601f19601f8301169050919050565b600061046282610400565b61046c818561040b565b935061047c81856020860161041c565b61048581610446565b840191505092915050565b600060208201905081810360008301526104aa8184610457565b905092915050565b6000604051905090565b600080fd5b600080fd5b6000819050919050565b6104d9816104c6565b81146104e457600080fd5b50565b6000813590506104f6816104d0565b92915050565b600060208284031215610512576105116104bc565b5b6000610520848285016104e7565b91505092915050565b600073ffffffffffffffffffffffffffffffffffffffff82169050919050565b600061055482610529565b9050919050565b61056481610549565b82525050565b600060208201905061057f600083018461055b565b92915050565b61058e816104c6565b82525050565b60006040820190506105a9600083018561055b565b6105b66020830184610585565b9392505050565b60008115159050919050565b6105d2816105bd565b81146105dd57600080fd5b50565b6000815190506105ef816105c9565b92915050565b60006020828403121561060b5761060a6104bc565b5b6000610619848285016105e0565b91505092915050565b7f4e487b7100000000000000000000000000000000000000000000000000000000600052604160045260246000fd5b7f4e487b7100000000000000000000000000000000000000000000000000000000600052603260045260246000fd5b600081519050919050565b600082825260208201905092915050565b6000819050602082019050919050565b6106b581610549565b82525050565b60006106c783836106ac565b60208301905092915050565b6000602082019050919050565b60006106eb82610680565b6106f5818561068b565b93506107008361069c565b8060005b8381101561073157815161071888826106bb565b9750610723836106d3565b925050600181019050610704565b5085935050505092915050565b6000602082019050818103600083015261075881846106e0565b905092915050565b600080fd5b61076e82610446565b810181811067ffffffffffffffff8211171561078d5761078c610622565b5b80604052505050565b60006107a06104b2565b90506107ac8282610765565b919050565b600067ffffffffffffffff8211156107cc576107cb610622565b5b602082029050602081019050919050565b600080fd5b6000815190506107f1816104d0565b92915050565b600061080a610805846107b1565b610796565b9050808382526020820190506020840283018581111561082d5761082c6107dd565b5b835b81811015610856578061084288826107e2565b84526020840193505060208101905061082f565b5050509392505050565b600082601f83011261087557610874610760565b5b81516108858482602086016107f7565b91505092915050565b6000602082840312156108a4576108a36104bc565b5b600082015167ffffffffffffffff8111156108c2576108c16104c1565b5b6108ce84828501610860565b91505092915050565b60006020820190506108ec6000830184610585565b92915050565b600060208284031215610908576109076104bc565b5b6000610916848285016107e2565b91505092915050565b7f4d696e74696e67206661696c6564000000000000000000000000000000000000600082015250565b6000610955600e8361040b565b91506109608261091f565b602082019050919050565b6000602082019050818103600083015261098481610948565b905091905056fea2646970667358221220d2f83961cdd74d7983fe00abbd919146496c8282a19bbbfc749163532717f6ae64736f6c63430008130033","opcodes":"PUSH1 0x80 PUSH1 0x40 MSTORE CALLVALUE DUP1 ISZERO PUSH2 0x10 JUMPI PUSH1 0x0 DUP1 REVERT JUMPDEST POP PUSH2 0x9C1 DUP1 PUSH2 0x20 PUSH1 0x0 CODECOPY PUSH1 0x0 RETURN INVALID PUSH1 0x80 PUSH1 0x40 MSTORE CALLVALUE DUP1 ISZERO PUSH2 0x10 JUMPI PUSH1 0x0 DUP1 REVERT JUMPDEST POP PUSH1 0x4 CALLDATASIZE LT PUSH2 0x4C JUMPI PUSH1 0x0 CALLDATALOAD PUSH1 0xE0 SHR DUP1 PUSH4 0x1002A3AC EQ PUSH2 0x51 JUMPI DUP1 PUSH4 0x300C0982 EQ PUSH2 0x6F JUMPI DUP1 PUSH4 0xA570DA04 EQ PUSH2 0x8B JUMPI DUP1 PUSH4 0xD32E33E2 EQ PUSH2 0xA9 JUMPI JUMPDEST PUSH1 0x0 DUP1 REVERT JUMPDEST PUSH2 0x59 PUSH2 0xC7 JUMP JUMPDEST PUSH1 0x40 MLOAD PUSH2 0x66 SWAP2 SWAP1 PUSH2 0x490 JUMP JUMPDEST PUSH1 0x40 MLOAD DUP1 SWAP2 SUB SWAP1 RETURN JUMPDEST PUSH2 0x89 PUSH1 0x4 DUP1 CALLDATASIZE SUB DUP2 ADD SWAP1 PUSH2 0x84 SWAP2 SWAP1 PUSH2 0x4FC JUMP JUMPDEST PUSH2 0x100 JUMP JUMPDEST STOP JUMPDEST PUSH2 0x93 PUSH2 0x3D0 JUMP JUMPDEST PUSH1 0x40 MLOAD PUSH2 0xA0 SWAP2 SWAP1 PUSH2 0x56A JUMP JUMPDEST PUSH1 0x40 MLOAD DUP1 SWAP2 SUB SWAP1 RETURN JUMPDEST PUSH2 0xB1 PUSH2 0x3E8 JUMP JUMPDEST PUSH1 0x40 MLOAD PUSH2 0xBE SWAP2 SWAP1 PUSH2 0x56A JUMP JUMPDEST PUSH1 0x40 MLOAD DUP1 SWAP2 SUB SWAP1 RETURN JUMPDEST PUSH1 0x40 MLOAD DUP1 PUSH1 0x40 ADD PUSH1 0x40 MSTORE DUP1 PUSH1 0x12 DUP2 MSTORE PUSH1 0x20 ADD PUSH32 0x3C796F75725F416C6368656D795F55524C3E0000000000000000000000000000 DUP2 MSTORE POP DUP2 JUMP JUMPDEST PUSH1 0x0 PUSH20 0x6B175474E89094C44DA98B954EEDEAC495271D0F SWAP1 POP DUP1 PUSH20 0xFFFFFFFFFFFFFFFFFFFFFFFFFFFFFFFFFFFFFFFF AND PUSH4 0x95EA7B3 PUSH20 0x5D3A536E4D6DBD6114CC1EAD35777BAB948E3643 DUP5 PUSH1 0x40 MLOAD DUP4 PUSH4 0xFFFFFFFF AND PUSH1 0xE0 SHL DUP2 MSTORE PUSH1 0x4 ADD PUSH2 0x168 SWAP3 SWAP2 SWAP1 PUSH2 0x594 JUMP JUMPDEST PUSH1 0x20 PUSH1 0x40 MLOAD DUP1 DUP4 SUB DUP2 PUSH1 0x0 DUP8 GAS CALL ISZERO DUP1 ISZERO PUSH2 0x187 JUMPI RETURNDATASIZE PUSH1 0x0 DUP1 RETURNDATACOPY RETURNDATASIZE PUSH1 0x0 REVERT JUMPDEST POP POP POP POP PUSH1 0x40 MLOAD RETURNDATASIZE PUSH1 0x1F NOT PUSH1 0x1F DUP3 ADD AND DUP3 ADD DUP1 PUSH1 0x40 MSTORE POP DUP2 ADD SWAP1 PUSH2 0x1AB SWAP2 SWAP1 PUSH2 0x5F5 JUMP JUMPDEST POP PUSH1 0x0 PUSH1 0x1 PUSH8 0xFFFFFFFFFFFFFFFF DUP2 GT ISZERO PUSH2 0x1C9 JUMPI PUSH2 0x1C8 PUSH2 0x622 JUMP JUMPDEST JUMPDEST PUSH1 0x40 MLOAD SWAP1 DUP1 DUP3 MSTORE DUP1 PUSH1 0x20 MUL PUSH1 0x20 ADD DUP3 ADD PUSH1 0x40 MSTORE DUP1 ISZERO PUSH2 0x1F7 JUMPI DUP2 PUSH1 0x20 ADD PUSH1 0x20 DUP3 MUL DUP1 CALLDATASIZE DUP4 CALLDATACOPY DUP1 DUP3 ADD SWAP2 POP POP SWAP1 POP JUMPDEST POP SWAP1 POP PUSH20 0x5D3A536E4D6DBD6114CC1EAD35777BAB948E3643 DUP2 PUSH1 0x0 DUP2 MLOAD DUP2 LT PUSH2 0x223 JUMPI PUSH2 0x222 PUSH2 0x651 JUMP JUMPDEST JUMPDEST PUSH1 0x20 MUL PUSH1 0x20 ADD ADD SWAP1 PUSH20 0xFFFFFFFFFFFFFFFFFFFFFFFFFFFFFFFFFFFFFFFF AND SWAP1 DUP2 PUSH20 0xFFFFFFFFFFFFFFFFFFFFFFFFFFFFFFFFFFFFFFFF AND DUP2 MSTORE POP POP PUSH20 0x3D9819210A31B4961B30EF54BE2AED79B9C9CD3B PUSH20 0xFFFFFFFFFFFFFFFFFFFFFFFFFFFFFFFFFFFFFFFF AND PUSH4 0xC2998238 DUP3 PUSH1 0x40 MLOAD DUP3 PUSH4 0xFFFFFFFF AND PUSH1 0xE0 SHL DUP2 MSTORE PUSH1 0x4 ADD PUSH2 0x2AA SWAP2 SWAP1 PUSH2 0x73E JUMP JUMPDEST PUSH1 0x0 PUSH1 0x40 MLOAD DUP1 DUP4 SUB DUP2 PUSH1 0x0 DUP8 GAS CALL ISZERO DUP1 ISZERO PUSH2 0x2C9 JUMPI RETURNDATASIZE PUSH1 0x0 DUP1 RETURNDATACOPY RETURNDATASIZE PUSH1 0x0 REVERT JUMPDEST POP POP POP POP PUSH1 0x40 MLOAD RETURNDATASIZE PUSH1 0x0 DUP3 RETURNDATACOPY RETURNDATASIZE PUSH1 0x1F NOT PUSH1 0x1F DUP3 ADD AND DUP3 ADD DUP1 PUSH1 0x40 MSTORE POP DUP2 ADD SWAP1 PUSH2 0x2F2 SWAP2 SWAP1 PUSH2 0x88E JUMP JUMPDEST POP PUSH1 0x0 PUSH20 0x5D3A536E4D6DBD6114CC1EAD35777BAB948E3643 SWAP1 POP PUSH1 0x0 DUP2 PUSH20 0xFFFFFFFFFFFFFFFFFFFFFFFFFFFFFFFFFFFFFFFF AND PUSH4 0xA0712D68 DUP7 PUSH1 0x40 MLOAD DUP3 PUSH4 0xFFFFFFFF AND PUSH1 0xE0 SHL DUP2 MSTORE PUSH1 0x4 ADD PUSH2 0x347 SWAP2 SWAP1 PUSH2 0x8D7 JUMP JUMPDEST PUSH1 0x20 PUSH1 0x40 MLOAD DUP1 DUP4 SUB DUP2 PUSH1 0x0 DUP8 GAS CALL ISZERO DUP1 ISZERO PUSH2 0x366 JUMPI RETURNDATASIZE PUSH1 0x0 DUP1 RETURNDATACOPY RETURNDATASIZE PUSH1 0x0 REVERT JUMPDEST POP POP POP POP PUSH1 0x40 MLOAD RETURNDATASIZE PUSH1 0x1F NOT PUSH1 0x1F DUP3 ADD AND DUP3 ADD DUP1 PUSH1 0x40 MSTORE POP DUP2 ADD SWAP1 PUSH2 0x38A SWAP2 SWAP1 PUSH2 0x8F2 JUMP JUMPDEST EQ PUSH2 0x3CA JUMPI PUSH1 0x40 MLOAD PUSH32 0x8C379A000000000000000000000000000000000000000000000000000000000 DUP2 MSTORE PUSH1 0x4 ADD PUSH2 0x3C1 SWAP1 PUSH2 0x96B JUMP JUMPDEST PUSH1 0x40 MLOAD DUP1 SWAP2 SUB SWAP1 REVERT JUMPDEST POP POP POP POP JUMP JUMPDEST PUSH20 0x5D3A536E4D6DBD6114CC1EAD35777BAB948E3643 DUP2 JUMP JUMPDEST PUSH20 0x3D9819210A31B4961B30EF54BE2AED79B9C9CD3B DUP2 JUMP JUMPDEST PUSH1 0x0 DUP2 MLOAD SWAP1 POP SWAP2 SWAP1 POP JUMP JUMPDEST PUSH1 0x0 DUP3 DUP3 MSTORE PUSH1 0x20 DUP3 ADD SWAP1 POP SWAP3 SWAP2 POP POP JUMP JUMPDEST PUSH1 0x0 JUMPDEST DUP4 DUP2 LT ISZERO PUSH2 0x43A JUMPI DUP1 DUP3 ADD MLOAD DUP2 DUP5 ADD MSTORE PUSH1 0x20 DUP2 ADD SWAP1 POP PUSH2 0x41F JUMP JUMPDEST PUSH1 0x0 DUP5 DUP5 ADD MSTORE POP POP POP POP JUMP JUMPDEST PUSH1 0x0 PUSH1 0x1F NOT PUSH1 0x1F DUP4 ADD AND SWAP1 POP SWAP2 SWAP1 POP JUMP JUMPDEST PUSH1 0x0 PUSH2 0x462 DUP3 PUSH2 0x400 JUMP JUMPDEST PUSH2 0x46C DUP2 DUP6 PUSH2 0x40B JUMP JUMPDEST SWAP4 POP PUSH2 0x47C DUP2 DUP6 PUSH1 0x20 DUP7 ADD PUSH2 0x41C JUMP JUMPDEST PUSH2 0x485 DUP2 PUSH2 0x446 JUMP JUMPDEST DUP5 ADD SWAP2 POP POP SWAP3 SWAP2 POP POP JUMP JUMPDEST PUSH1 0x0 PUSH1 0x20 DUP3 ADD SWAP1 POP DUP2 DUP2 SUB PUSH1 0x0 DUP4 ADD MSTORE PUSH2 0x4AA DUP2 DUP5 PUSH2 0x457 JUMP JUMPDEST SWAP1 POP SWAP3 SWAP2 POP POP JUMP JUMPDEST PUSH1 0x0 PUSH1 0x40 MLOAD SWAP1 POP SWAP1 JUMP JUMPDEST PUSH1 0x0 DUP1 REVERT JUMPDEST PUSH1 0x0 DUP1 REVERT JUMPDEST PUSH1 0x0 DUP2 SWAP1 POP SWAP2 SWAP1 POP JUMP JUMPDEST PUSH2 0x4D9 DUP2 PUSH2 0x4C6 JUMP JUMPDEST DUP2 EQ PUSH2 0x4E4 JUMPI PUSH1 0x0 DUP1 REVERT JUMPDEST POP JUMP JUMPDEST PUSH1 0x0 DUP2 CALLDATALOAD SWAP1 POP PUSH2 0x4F6 DUP2 PUSH2 0x4D0 JUMP JUMPDEST SWAP3 SWAP2 POP POP JUMP JUMPDEST PUSH1 0x0 PUSH1 0x20 DUP3 DUP5 SUB SLT ISZERO PUSH2 0x512 JUMPI PUSH2 0x511 PUSH2 0x4BC JUMP JUMPDEST JUMPDEST PUSH1 0x0 PUSH2 0x520 DUP5 DUP3 DUP6 ADD PUSH2 0x4E7 JUMP JUMPDEST SWAP2 POP POP SWAP3 SWAP2 POP POP JUMP JUMPDEST PUSH1 0x0 PUSH20 0xFFFFFFFFFFFFFFFFFFFFFFFFFFFFFFFFFFFFFFFF DUP3 AND SWAP1 POP SWAP2 SWAP1 POP JUMP JUMPDEST PUSH1 0x0 PUSH2 0x554 DUP3 PUSH2 0x529 JUMP JUMPDEST SWAP1 POP SWAP2 SWAP1 POP JUMP JUMPDEST PUSH2 0x564 DUP2 PUSH2 0x549 JUMP JUMPDEST DUP3 MSTORE POP POP JUMP JUMPDEST PUSH1 0x0 PUSH1 0x20 DUP3 ADD SWAP1 POP PUSH2 0x57F PUSH1 0x0 DUP4 ADD DUP5 PUSH2 0x55B JUMP JUMPDEST SWAP3 SWAP2 POP POP JUMP JUMPDEST PUSH2 0x58E DUP2 PUSH2 0x4C6 JUMP JUMPDEST DUP3 MSTORE POP POP JUMP JUMPDEST PUSH1 0x0 PUSH1 0x40 DUP3 ADD SWAP1 POP PUSH2 0x5A9 PUSH1 0x0 DUP4 ADD DUP6 PUSH2 0x55B JUMP JUMPDEST PUSH2 0x5B6 PUSH1 0x20 DUP4 ADD DUP5 PUSH2 0x585 JUMP JUMPDEST SWAP4 SWAP3 POP POP POP JUMP JUMPDEST PUSH1 0x0 DUP2 ISZERO ISZERO SWAP1 POP SWAP2 SWAP1 POP JUMP JUMPDEST PUSH2 0x5D2 DUP2 PUSH2 0x5BD JUMP JUMPDEST DUP2 EQ PUSH2 0x5DD JUMPI PUSH1 0x0 DUP1 REVERT JUMPDEST POP JUMP JUMPDEST PUSH1 0x0 DUP2 MLOAD SWAP1 POP PUSH2 0x5EF DUP2 PUSH2 0x5C9 JUMP JUMPDEST SWAP3 SWAP2 POP POP JUMP JUMPDEST PUSH1 0x0 PUSH1 0x20 DUP3 DUP5 SUB SLT ISZERO PUSH2 0x60B JUMPI PUSH2 0x60A PUSH2 0x4BC JUMP JUMPDEST JUMPDEST PUSH1 0x0 PUSH2 0x619 DUP5 DUP3 DUP6 ADD PUSH2 0x5E0 JUMP JUMPDEST SWAP2 POP POP SWAP3 SWAP2 POP POP JUMP JUMPDEST PUSH32 0x4E487B7100000000000000000000000000000000000000000000000000000000 PUSH1 0x0 MSTORE PUSH1 0x41 PUSH1 0x4 MSTORE PUSH1 0x24 PUSH1 0x0 REVERT JUMPDEST PUSH32 0x4E487B7100000000000000000000000000000000000000000000000000000000 PUSH1 0x0 MSTORE PUSH1 0x32 PUSH1 0x4 MSTORE PUSH1 0x24 PUSH1 0x0 REVERT JUMPDEST PUSH1 0x0 DUP2 MLOAD SWAP1 POP SWAP2 SWAP1 POP JUMP JUMPDEST PUSH1 0x0 DUP3 DUP3 MSTORE PUSH1 0x20 DUP3 ADD SWAP1 POP SWAP3 SWAP2 POP POP JUMP JUMPDEST PUSH1 0x0 DUP2 SWAP1 POP PUSH1 0x20 DUP3 ADD SWAP1 POP SWAP2 SWAP1 POP JUMP JUMPDEST PUSH2 0x6B5 DUP2 PUSH2 0x549 JUMP JUMPDEST DUP3 MSTORE POP POP JUMP JUMPDEST PUSH1 0x0 PUSH2 0x6C7 DUP4 DUP4 PUSH2 0x6AC JUMP JUMPDEST PUSH1 0x20 DUP4 ADD SWAP1 POP SWAP3 SWAP2 POP POP JUMP JUMPDEST PUSH1 0x0 PUSH1 0x20 DUP3 ADD SWAP1 POP SWAP2 SWAP1 POP JUMP JUMPDEST PUSH1 0x0 PUSH2 0x6EB DUP3 PUSH2 0x680 JUMP JUMPDEST PUSH2 0x6F5 DUP2 DUP6 PUSH2 0x68B JUMP JUMPDEST SWAP4 POP PUSH2 0x700 DUP4 PUSH2 0x69C JUMP JUMPDEST DUP1 PUSH1 0x0 JUMPDEST DUP4 DUP2 LT ISZERO PUSH2 0x731 JUMPI DUP2 MLOAD PUSH2 0x718 DUP9 DUP3 PUSH2 0x6BB JUMP JUMPDEST SWAP8 POP PUSH2 0x723 DUP4 PUSH2 0x6D3 JUMP JUMPDEST SWAP3 POP POP PUSH1 0x1 DUP2 ADD SWAP1 POP PUSH2 0x704 JUMP JUMPDEST POP DUP6 SWAP4 POP POP POP POP SWAP3 SWAP2 POP POP JUMP JUMPDEST PUSH1 0x0 PUSH1 0x20 DUP3 ADD SWAP1 POP DUP2 DUP2 SUB PUSH1 0x0 DUP4 ADD MSTORE PUSH2 0x758 DUP2 DUP5 PUSH2 0x6E0 JUMP JUMPDEST SWAP1 POP SWAP3 SWAP2 POP POP JUMP JUMPDEST PUSH1 0x0 DUP1 REVERT JUMPDEST PUSH2 0x76E DUP3 PUSH2 0x446 JUMP JUMPDEST DUP2 ADD DUP2 DUP2 LT PUSH8 0xFFFFFFFFFFFFFFFF DUP3 GT OR ISZERO PUSH2 0x78D JUMPI PUSH2 0x78C PUSH2 0x622 JUMP JUMPDEST JUMPDEST DUP1 PUSH1 0x40 MSTORE POP POP POP JUMP JUMPDEST PUSH1 0x0 PUSH2 0x7A0 PUSH2 0x4B2 JUMP JUMPDEST SWAP1 POP PUSH2 0x7AC DUP3 DUP3 PUSH2 0x765 JUMP JUMPDEST SWAP2 SWAP1 POP JUMP JUMPDEST PUSH1 0x0 PUSH8 0xFFFFFFFFFFFFFFFF DUP3 GT ISZERO PUSH2 0x7CC JUMPI PUSH2 0x7CB PUSH2 0x622 JUMP JUMPDEST JUMPDEST PUSH1 0x20 DUP3 MUL SWAP1 POP PUSH1 0x20 DUP2 ADD SWAP1 POP SWAP2 SWAP1 POP JUMP JUMPDEST PUSH1 0x0 DUP1 REVERT JUMPDEST PUSH1 0x0 DUP2 MLOAD SWAP1 POP PUSH2 0x7F1 DUP2 PUSH2 0x4D0 JUMP JUMPDEST SWAP3 SWAP2 POP POP JUMP JUMPDEST PUSH1 0x0 PUSH2 0x80A PUSH2 0x805 DUP5 PUSH2 0x7B1 JUMP JUMPDEST PUSH2 0x796 JUMP JUMPDEST SWAP1 POP DUP1 DUP4 DUP3 MSTORE PUSH1 0x20 DUP3 ADD SWAP1 POP PUSH1 0x20 DUP5 MUL DUP4 ADD DUP6 DUP2 GT ISZERO PUSH2 0x82D JUMPI PUSH2 0x82C PUSH2 0x7DD JUMP JUMPDEST JUMPDEST DUP4 JUMPDEST DUP2 DUP2 LT ISZERO PUSH2 0x856 JUMPI DUP1 PUSH2 0x842 DUP9 DUP3 PUSH2 0x7E2 JUMP JUMPDEST DUP5 MSTORE PUSH1 0x20 DUP5 ADD SWAP4 POP POP PUSH1 0x20 DUP2 ADD SWAP1 POP PUSH2 0x82F JUMP JUMPDEST POP POP POP SWAP4 SWAP3 POP POP POP JUMP JUMPDEST PUSH1 0x0 DUP3 PUSH1 0x1F DUP4 ADD SLT PUSH2 0x875 JUMPI PUSH2 0x874 PUSH2 0x760 JUMP JUMPDEST JUMPDEST DUP2 MLOAD PUSH2 0x885 DUP5 DUP3 PUSH1 0x20 DUP7 ADD PUSH2 0x7F7 JUMP JUMPDEST SWAP2 POP POP SWAP3 SWAP2 POP POP JUMP JUMPDEST PUSH1 0x0 PUSH1 0x20 DUP3 DUP5 SUB SLT ISZERO PUSH2 0x8A4 JUMPI PUSH2 0x8A3 PUSH2 0x4BC JUMP JUMPDEST JUMPDEST PUSH1 0x0 DUP3 ADD MLOAD PUSH8 0xFFFFFFFFFFFFFFFF DUP2 GT ISZERO PUSH2 0x8C2 JUMPI PUSH2 0x8C1 PUSH2 0x4C1 JUMP JUMPDEST JUMPDEST PUSH2 0x8CE DUP5 DUP3 DUP6 ADD PUSH2 0x860 JUMP JUMPDEST SWAP2 POP POP SWAP3 SWAP2 POP POP JUMP JUMPDEST PUSH1 0x0 PUSH1 0x20 DUP3 ADD SWAP1 POP PUSH2 0x8EC PUSH1 0x0 DUP4 ADD DUP5 PUSH2 0x585 JUMP JUMPDEST SWAP3 SWAP2 POP POP JUMP JUMPDEST PUSH1 0x0 PUSH1 0x20 DUP3 DUP5 SUB SLT ISZERO PUSH2 0x908 JUMPI PUSH2 0x907 PUSH2 0x4BC JUMP JUMPDEST JUMPDEST PUSH1 0x0 PUSH2 0x916 DUP5 DUP3 DUP6 ADD PUSH2 0x7E2 JUMP JUMPDEST SWAP2 POP POP SWAP3 SWAP2 POP POP JUMP JUMPDEST PUSH32 0x4D696E74696E67206661696C6564000000000000000000000000000000000000 PUSH1 0x0 DUP3 ADD MSTORE POP JUMP JUMPDEST PUSH1 0x0 PUSH2 0x955 PUSH1 0xE DUP4 PUSH2 0x40B JUMP JUMPDEST SWAP2 POP PUSH2 0x960 DUP3 PUSH2 0x91F JUMP JUMPDEST PUSH1 0x20 DUP3 ADD SWAP1 POP SWAP2 SWAP1 POP JUMP JUMPDEST PUSH1 0x0 PUSH1 0x20 DUP3 ADD SWAP1 POP DUP2 DUP2 SUB PUSH1 0x0 DUP4 ADD MSTORE PUSH2 0x984 DUP2 PUSH2 0x948 JUMP JUMPDEST SWAP1 POP SWAP2 SWAP1 POP JUMP INVALID LOG2 PUSH5 0x6970667358 0x22 SLT KECCAK256 0xD2 0xF8 CODECOPY PUSH2 0xCDD7 0x4D PUSH26 0x83FE00ABBD919146496C8282A19BBBFC749163532717F6AE6473 PUSH16 0x6C634300081300330000000000000000 "},"methodIdentifiers":{"ALCHEMY_URL()":"1002a3ac","COMPOUND_CDAI_ADDRESS()":"a570da04","COMPOUND_COMPTROLLER_ADDRESS()":"d32e33e2","depositToCompound(uint256)":"300c0982"}}}}}