{
  "_format": "hh-sol-artifact-1",
  "contractName": "CompoundDeposit",
  "sourceName": "contracts/CompoudDeposit.sol",
  "abi": [
    {
      "inputs": [],
      "name": "ALCHEMY_URL",
      "outputs": [
        {
          "internalType": "string",
          "name": "",
          "type": "string"
        }
      ],
      "stateMutability": "view",
      "type": "function"
    },
    {
      "inputs": [],
      "name": "COMPOUND_CDAI_ADDRESS",
      "outputs": [
        {
          "internalType": "address",
          "name": "",
          "type": "address"
        }
      ],
      "stateMutability": "view",
      "type": "function"
    },
    {
      "inputs": [],
      "name": "COMPOUND_COMPTROLLER_ADDRESS",
      "outputs": [
        {
          "internalType": "address",
          "name": "",
          "type": "address"
        }
      ],
      "stateMutability": "view",
      "type": "function"
    },
    {
      "inputs": [
        {
          "internalType": "uint256",
          "name": "_amount",
          "type": "uint256"
        }
      ],
      "name": "depositToCompound",
      "outputs": [],
      "stateMutability": "nonpayable",
      "type": "function"
    }
  ],
  "bytecode": "0x608060405234801561001057600080fd5b506109c1806100206000396000f3fe608060405234801561001057600080fd5b506004361061004c5760003560e01c80631002a3ac14610051578063300c09821461006f578063a570da041461008b578063d32e33e2146100a9575b600080fd5b6100596100c7565b6040516100669190610490565b60405180910390f35b610089600480360381019061008491906104fc565b610100565b005b6100936103d0565b6040516100a0919061056a565b60405180910390f35b6100b16103e8565b6040516100be919061056a565b60405180910390f35b6040518060400160405280601281526020017f3c796f75725f416c6368656d795f55524c3e000000000000000000000000000081525081565b6000736b175474e89094c44da98b954eedeac495271d0f90508073ffffffffffffffffffffffffffffffffffffffff1663095ea7b3735d3a536e4d6dbd6114cc1ead35777bab948e3643846040518363ffffffff1660e01b8152600401610168929190610594565b6020604051808303816000875af1158015610187573d6000803e3d6000fd5b505050506040513d601f19601f820116820180604052508101906101ab91906105f5565b506000600167ffffffffffffffff8111156101c9576101c8610622565b5b6040519080825280602002602001820160405280156101f75781602001602082028036833780820191505090505b509050735d3a536e4d6dbd6114cc1ead35777bab948e36438160008151811061022357610222610651565b5b602002602001019073ffffffffffffffffffffffffffffffffffffffff16908173ffffffffffffffffffffffffffffffffffffffff1681525050733d9819210a31b4961b30ef54be2aed79b9c9cd3b73ffffffffffffffffffffffffffffffffffffffff1663c2998238826040518263ffffffff1660e01b81526004016102aa919061073e565b6000604051808303816000875af11580156102c9573d6000803e3d6000fd5b505050506040513d6000823e3d601f19601f820116820180604052508101906102f2919061088e565b506000735d3a536e4d6dbd6114cc1ead35777bab948e3643905060008173ffffffffffffffffffffffffffffffffffffffff1663a0712d68866040518263ffffffff1660e01b815260040161034791906108d7565b6020604051808303816000875af1158015610366573d6000803e3d6000fd5b505050506040513d601f19601f8201168201806040525081019061038a91906108f2565b146103ca576040517f08c379a00000000000000000000000000000000000000000000000000000000081526004016103c19061096b565b60405180910390fd5b50505050565b735d3a536e4d6dbd6114cc1ead35777bab948e364381565b733d9819210a31b4961b30ef54be2aed79b9c9cd3b81565b600081519050919050565b600082825260208201905092915050565b60005b8381101561043a57808201518184015260208101905061041f565b60008484015250505050565b6000601f19601f8301169050919050565b600061046282610400565b61046c818561040b565b935061047c81856020860161041c565b61048581610446565b840191505092915050565b600060208201905081810360008301526104aa8184610457565b905092915050565b6000604051905090565b600080fd5b600080fd5b6000819050919050565b6104d9816104c6565b81146104e457600080fd5b50565b6000813590506104f6816104d0565b92915050565b600060208284031215610512576105116104bc565b5b6000610520848285016104e7565b91505092915050565b600073ffffffffffffffffffffffffffffffffffffffff82169050919050565b600061055482610529565b9050919050565b61056481610549565b82525050565b600060208201905061057f600083018461055b565b92915050565b61058e816104c6565b82525050565b60006040820190506105a9600083018561055b565b6105b66020830184610585565b9392505050565b60008115159050919050565b6105d2816105bd565b81146105dd57600080fd5b50565b6000815190506105ef816105c9565b92915050565b60006020828403121561060b5761060a6104bc565b5b6000610619848285016105e0565b91505092915050565b7f4e487b7100000000000000000000000000000000000000000000000000000000600052604160045260246000fd5b7f4e487b7100000000000000000000000000000000000000000000000000000000600052603260045260246000fd5b600081519050919050565b600082825260208201905092915050565b6000819050602082019050919050565b6106b581610549565b82525050565b60006106c783836106ac565b60208301905092915050565b6000602082019050919050565b60006106eb82610680565b6106f5818561068b565b93506107008361069c565b8060005b8381101561073157815161071888826106bb565b9750610723836106d3565b925050600181019050610704565b5085935050505092915050565b6000602082019050818103600083015261075881846106e0565b905092915050565b600080fd5b61076e82610446565b810181811067ffffffffffffffff8211171561078d5761078c610622565b5b80604052505050565b60006107a06104b2565b90506107ac8282610765565b919050565b600067ffffffffffffffff8211156107cc576107cb610622565b5b602082029050602081019050919050565b600080fd5b6000815190506107f1816104d0565b92915050565b600061080a610805846107b1565b610796565b9050808382526020820190506020840283018581111561082d5761082c6107dd565b5b835b81811015610856578061084288826107e2565b84526020840193505060208101905061082f565b5050509392505050565b600082601f83011261087557610874610760565b5b81516108858482602086016107f7565b91505092915050565b6000602082840312156108a4576108a36104bc565b5b600082015167ffffffffffffffff8111156108c2576108c16104c1565b5b6108ce84828501610860565b91505092915050565b60006020820190506108ec6000830184610585565b92915050565b600060208284031215610908576109076104bc565b5b6000610916848285016107e2565b91505092915050565b7f4d696e74696e67206661696c6564000000000000000000000000000000000000600082015250565b6000610955600e8361040b565b91506109608261091f565b602082019050919050565b6000602082019050818103600083015261098481610948565b905091905056fea2646970667358221220d2f83961cdd74d7983fe00abbd919146496c8282a19bbbfc749163532717f6ae64736f6c63430008130033",
  "linkReferences": {},
  "deployedLinkReferences": {}
}