{
  "_format": "hh-sol-artifact-1",
  "contractName": "AaveInteractions",
  "sourceName": "contracts/AaveInteractions.sol",
  "abi": [
    {
      "inputs": [],
      "stateMutability": "nonpayable",
      "type": "constructor"
    },
    {
      "inputs": [],
      "name": "ADDRESSES_PROVIDER",
      "outputs": [
        {
          "internalType": "contract IPoolAddressesProvider",
          "name": "",
          "type": "address"
        }
      ],
      "stateMutability": "view",
      "type": "function"
    },
    {
      "inputs": [],
      "name": "POOL",
      "outputs": [
        {
          "internalType": "contract IPool",
          "name": "",
          "type": "address"
        }
      ],
      "stateMutability": "view",
      "type": "function"
    },
    {
      "inputs": [],
      "name": "POOL_DATA",
      "outputs": [
        {
          "internalType": "contract IPoolDataProvider",
          "name": "",
          "type": "address"
        }
      ],
      "stateMutability": "view",
      "type": "function"
    },
    {
      "inputs": [],
      "name": "UNI_CONTRACT",
      "outputs": [
        {
          "internalType": "contract UniswapInteractions",
          "name": "",
          "type": "address"
        }
      ],
      "stateMutability": "view",
      "type": "function"
    },
    {
      "inputs": [
        {
          "internalType": "address",
          "name": "_contractAddress",
          "type": "address"
        },
        {
          "internalType": "address",
          "name": "_poolContractAddress",
          "type": "address"
        },
        {
          "internalType": "address",
          "name": "_tokenAddress",
          "type": "address"
        }
      ],
      "name": "allowanceAaveTransfer",
      "outputs": [
        {
          "internalType": "uint256",
          "name": "",
          "type": "uint256"
        }
      ],
      "stateMutability": "view",
      "type": "function"
    },
    {
      "inputs": [
        {
          "internalType": "address",
          "name": "_tokenAddress",
          "type": "address"
        }
      ],
      "name": "allowanceContractTransfer",
      "outputs": [
        {
          "internalType": "uint256",
          "name": "",
          "type": "uint256"
        }
      ],
      "stateMutability": "view",
      "type": "function"
    },
    {
      "inputs": [
        {
          "internalType": "address",
          "name": "_tokenAddress",
          "type": "address"
        }
      ],
      "name": "allowedToken",
      "outputs": [],
      "stateMutability": "nonpayable",
      "type": "function"
    },
    {
      "inputs": [
        {
          "internalType": "uint256",
          "name": "_amount",
          "type": "uint256"
        },
        {
          "internalType": "address",
          "name": "_poolContractAddress",
          "type": "address"
        },
        {
          "internalType": "address",
          "name": "_tokenAddress",
          "type": "address"
        }
      ],
      "name": "approveAaveTransfer",
      "outputs": [
        {
          "internalType": "bool",
          "name": "",
          "type": "bool"
        }
      ],
      "stateMutability": "nonpayable",
      "type": "function"
    },
    {
      "inputs": [
        {
          "internalType": "uint256",
          "name": "_amount",
          "type": "uint256"
        },
        {
          "internalType": "address",
          "name": "_tokenAddress",
          "type": "address"
        }
      ],
      "name": "approveContractTransfer",
      "outputs": [
        {
          "internalType": "bool",
          "name": "",
          "type": "bool"
        }
      ],
      "stateMutability": "nonpayable",
      "type": "function"
    },
    {
      "inputs": [
        {
          "internalType": "uint256",
          "name": "_amount",
          "type": "uint256"
        },
        {
          "internalType": "address",
          "name": "_tokenAddress",
          "type": "address"
        }
      ],
      "name": "depositToContract",
      "outputs": [
        {
          "internalType": "bool",
          "name": "",
          "type": "bool"
        }
      ],
      "stateMutability": "nonpayable",
      "type": "function"
    },
    {
      "inputs": [
        {
          "internalType": "address",
          "name": "_contractAddress",
          "type": "address"
        },
        {
          "internalType": "address",
          "name": "_tokenAddress",
          "type": "address"
        }
      ],
      "name": "getBalanceContract",
      "outputs": [
        {
          "internalType": "uint256",
          "name": "",
          "type": "uint256"
        }
      ],
      "stateMutability": "view",
      "type": "function"
    },
    {
      "inputs": [
        {
          "internalType": "address",
          "name": "_contractAddress",
          "type": "address"
        }
      ],
      "name": "getContractDataAave",
      "outputs": [
        {
          "internalType": "uint256",
          "name": "totalCollateralBase",
          "type": "uint256"
        },
        {
          "internalType": "uint256",
          "name": "totalDebtBase",
          "type": "uint256"
        },
        {
          "internalType": "uint256",
          "name": "availableBorrowsBase",
          "type": "uint256"
        },
        {
          "internalType": "uint256",
          "name": "currentLiquidationThreshold",
          "type": "uint256"
        },
        {
          "internalType": "uint256",
          "name": "ltv",
          "type": "uint256"
        },
        {
          "internalType": "uint256",
          "name": "healthFactor",
          "type": "uint256"
        }
      ],
      "stateMutability": "view",
      "type": "function"
    },
    {
      "inputs": [
        {
          "internalType": "uint256",
          "name": "_amount",
          "type": "uint256"
        }
      ],
      "name": "intSwap",
      "outputs": [],
      "stateMutability": "nonpayable",
      "type": "function"
    },
    {
      "inputs": [
        {
          "internalType": "address",
          "name": "",
          "type": "address"
        }
      ],
      "name": "poolValueAave",
      "outputs": [
        {
          "internalType": "uint256",
          "name": "",
          "type": "uint256"
        }
      ],
      "stateMutability": "view",
      "type": "function"
    },
    {
      "inputs": [
        {
          "internalType": "address",
          "name": "",
          "type": "address"
        }
      ],
      "name": "poolValueToken",
      "outputs": [
        {
          "internalType": "uint256",
          "name": "",
          "type": "uint256"
        }
      ],
      "stateMutability": "view",
      "type": "function"
    },
    {
      "inputs": [
        {
          "internalType": "uint256",
          "name": "_amount",
          "type": "uint256"
        },
        {
          "internalType": "address",
          "name": "_aTokenRecieverAddress",
          "type": "address"
        },
        {
          "internalType": "address",
          "name": "_tokenAddress",
          "type": "address"
        }
      ],
      "name": "supplyLiquidityAave",
      "outputs": [],
      "stateMutability": "nonpayable",
      "type": "function"
    },
    {
      "inputs": [
        {
          "internalType": "address",
          "name": "",
          "type": "address"
        },
        {
          "internalType": "address",
          "name": "",
          "type": "address"
        }
      ],
      "name": "userAccBalAave",
      "outputs": [
        {
          "internalType": "uint256",
          "name": "",
          "type": "uint256"
        }
      ],
      "stateMutability": "view",
      "type": "function"
    },
    {
      "inputs": [
        {
          "internalType": "address",
          "name": "",
          "type": "address"
        },
        {
          "internalType": "address",
          "name": "",
          "type": "address"
        }
      ],
      "name": "userAccBalContract",
      "outputs": [
        {
          "internalType": "uint256",
          "name": "",
          "type": "uint256"
        }
      ],
      "stateMutability": "view",
      "type": "function"
    },
    {
      "inputs": [
        {
          "internalType": "uint256",
          "name": "_amount",
          "type": "uint256"
        },
        {
          "internalType": "address",
          "name": "_tokenAddress",
          "type": "address"
        }
      ],
      "name": "withdrawFromContract",
      "outputs": [],
      "stateMutability": "nonpayable",
      "type": "function"
    },
    {
      "inputs": [
        {
          "internalType": "uint256",
          "name": "_amount",
          "type": "uint256"
        },
        {
          "internalType": "address",
          "name": "_contractAddress",
          "type": "address"
        },
        {
          "internalType": "address",
          "name": "_tokenAddress",
          "type": "address"
        }
      ],
      "name": "withdrawLiquidityAave",
      "outputs": [
        {
          "internalType": "uint256",
          "name": "",
          "type": "uint256"
        }
      ],
      "stateMutability": "nonpayable",
      "type": "function"
    },
    {
      "stateMutability": "payable",
      "type": "receive"
    }
  ],
  "bytecode": "0x610180604052738f3cf7ad23cd3cadbd9735aff958023239c6a06373ffffffffffffffffffffffffffffffffffffffff166101009073ffffffffffffffffffffffffffffffffffffffff168152507382e64f49ed5ec1bc6e43dad4fc8af9bb3a2312ee73ffffffffffffffffffffffffffffffffffffffff166101209073ffffffffffffffffffffffffffffffffffffffff1681525073794a61358d6845594f94dc1db02a252b5b4814ad73ffffffffffffffffffffffffffffffffffffffff166101409073ffffffffffffffffffffffffffffffffffffffff16815250737d7ae35bc067c6afea057305d2c68d25af14646373ffffffffffffffffffffffffffffffffffffffff166101609073ffffffffffffffffffffffffffffffffffffffff168152503480156200013257600080fd5b506101405173ffffffffffffffffffffffffffffffffffffffff1660808173ffffffffffffffffffffffffffffffffffffffff168152505060805173ffffffffffffffffffffffffffffffffffffffff1663026b1d5f6040518163ffffffff1660e01b8152600401602060405180830381865afa158015620001b8573d6000803e3d6000fd5b505050506040513d601f19601f82011682018060405250810190620001de9190620004a7565b73ffffffffffffffffffffffffffffffffffffffff1660a08173ffffffffffffffffffffffffffffffffffffffff168152505060805173ffffffffffffffffffffffffffffffffffffffff1663026b1d5f6040518163ffffffff1660e01b8152600401602060405180830381865afa1580156200025f573d6000803e3d6000fd5b505050506040513d601f19601f82011682018060405250810190620002859190620004a7565b73ffffffffffffffffffffffffffffffffffffffff1660c08173ffffffffffffffffffffffffffffffffffffffff1681525050336000806101000a81548173ffffffffffffffffffffffffffffffffffffffff021916908373ffffffffffffffffffffffffffffffffffffffff16021790555061010051600560006101005173ffffffffffffffffffffffffffffffffffffffff1673ffffffffffffffffffffffffffffffffffffffff16815260200190815260200160002060006101000a81548173ffffffffffffffffffffffffffffffffffffffff021916908373ffffffffffffffffffffffffffffffffffffffff16021790555061012051600560006101205173ffffffffffffffffffffffffffffffffffffffff1673ffffffffffffffffffffffffffffffffffffffff16815260200190815260200160002060006101000a81548173ffffffffffffffffffffffffffffffffffffffff021916908373ffffffffffffffffffffffffffffffffffffffff1602179055506101605173ffffffffffffffffffffffffffffffffffffffff1660e08173ffffffffffffffffffffffffffffffffffffffff1681525050620004d9565b600080fd5b600073ffffffffffffffffffffffffffffffffffffffff82169050919050565b60006200046f8262000442565b9050919050565b620004818162000462565b81146200048d57600080fd5b50565b600081519050620004a18162000476565b92915050565b600060208284031215620004c057620004bf6200043d565b5b6000620004d08482850162000490565b91505092915050565b60805160a05160c05160e05161010051610120516101405161016051611cea6200054f600039600050506000505060005050600050506000818161058601526112420152600061144a01526000818161093e015281816109fd01528181610b39015261139e015260006105620152611cea6000f3fe6080604052600436106101235760003560e01c806375d2e5dd116100a05780638b321c5d116100645780638b321c5d146104695780639605f505146104a6578063ac2e47bc146104cf578063c40abdbc146104f8578063f1f6f9c2146105355761012a565b806375d2e5dd146103335780638176e08114610375578063827c0329146103b2578063884913db146103ef578063889830911461042c5761012a565b8063327840db116100e7578063327840db1461023c578063390dc8991461027957806349c56e6c146102a25780637535d246146102df578063756742f81461030a5761012a565b80630542975c1461012f5780630b9cbe681461015a57806319fd18f1146101855780632ef0c395146101c257806331d84f51146101ff5761012a565b3661012a57005b600080fd5b34801561013b57600080fd5b50610144610560565b60405161015191906114eb565b60405180910390f35b34801561016657600080fd5b5061016f610584565b60405161017c9190611527565b60405180910390f35b34801561019157600080fd5b506101ac60048036038101906101a791906115bb565b6105a8565b6040516101b99190611616565b60405180910390f35b3480156101ce57600080fd5b506101e960048036038101906101e49190611631565b61068f565b6040516101f69190611680565b60405180910390f35b34801561020b57600080fd5b506102266004803603810190610221919061169b565b6106b4565b6040516102339190611616565b60405180910390f35b34801561024857600080fd5b50610263600480360381019061025e9190611631565b61079c565b6040516102709190611680565b60405180910390f35b34801561028557600080fd5b506102a0600480360381019061029b919061169b565b61087f565b005b3480156102ae57600080fd5b506102c960048036038101906102c49190611631565b6109d6565b6040516102d69190611680565b60405180910390f35b3480156102eb57600080fd5b506102f46109fb565b604051610301919061170f565b60405180910390f35b34801561031657600080fd5b50610331600480360381019061032c919061172a565b610a1f565b005b34801561033f57600080fd5b5061035a6004803603810190610355919061172a565b610b2e565b60405161036c96959493929190611757565b60405180910390f35b34801561038157600080fd5b5061039c6004803603810190610397919061172a565b610be6565b6040516103a99190611680565b60405180910390f35b3480156103be57600080fd5b506103d960048036038101906103d4919061172a565b610bfe565b6040516103e69190611680565b60405180910390f35b3480156103fb57600080fd5b506104166004803603810190610411919061172a565b610c16565b6040516104239190611680565b60405180910390f35b34801561043857600080fd5b50610453600480360381019061044e91906115bb565b610cfa565b6040516104609190611616565b60405180910390f35b34801561047557600080fd5b50610490600480360381019061048b91906117b8565b610ecc565b60405161049d9190611680565b60405180910390f35b3480156104b257600080fd5b506104cd60048036038101906104c891906115bb565b610fb2565b005b3480156104db57600080fd5b506104f660048036038101906104f1919061180b565b611240565b005b34801561050457600080fd5b5061051f600480360381019061051a919061169b565b6112e0565b60405161052c9190611680565b60405180910390f35b34801561054157600080fd5b5061054a611448565b6040516105579190611859565b60405180910390f35b7f000000000000000000000000000000000000000000000000000000000000000081565b7f000000000000000000000000000000000000000000000000000000000000000081565b6000600560008373ffffffffffffffffffffffffffffffffffffffff1673ffffffffffffffffffffffffffffffffffffffff16815260200190815260200160002060009054906101000a900473ffffffffffffffffffffffffffffffffffffffff1673ffffffffffffffffffffffffffffffffffffffff1663095ea7b330856040518363ffffffff1660e01b8152600401610644929190611883565b6020604051808303816000875af1158015610663573d6000803e3d6000fd5b505050506040513d601f19601f8201168201806040525081019061068791906118d8565b905092915050565b6001602052816000526040600020602052806000526040600020600091509150505481565b6000600560008373ffffffffffffffffffffffffffffffffffffffff1673ffffffffffffffffffffffffffffffffffffffff16815260200190815260200160002060009054906101000a900473ffffffffffffffffffffffffffffffffffffffff1673ffffffffffffffffffffffffffffffffffffffff1663095ea7b384866040518363ffffffff1660e01b8152600401610750929190611883565b6020604051808303816000875af115801561076f573d6000803e3d6000fd5b505050506040513d601f19601f8201168201806040525081019061079391906118d8565b90509392505050565b6000600560008373ffffffffffffffffffffffffffffffffffffffff1673ffffffffffffffffffffffffffffffffffffffff16815260200190815260200160002060009054906101000a900473ffffffffffffffffffffffffffffffffffffffff1673ffffffffffffffffffffffffffffffffffffffff166370a08231846040518263ffffffff1660e01b81526004016108369190611905565b602060405180830381865afa158015610853573d6000803e3d6000fd5b505050506040513d601f19601f820116820180604052508101906108779190611935565b905092915050565b600081905060008490506000849050600086600460008773ffffffffffffffffffffffffffffffffffffffff1673ffffffffffffffffffffffffffffffffffffffff16815260200190815260200160002060008282546108df9190611991565b9250508190555082600360008673ffffffffffffffffffffffffffffffffffffffff1673ffffffffffffffffffffffffffffffffffffffff168152602001908152602001600020600082825461093591906119c5565b925050819055507f000000000000000000000000000000000000000000000000000000000000000073ffffffffffffffffffffffffffffffffffffffff1663617ba037858585856040518563ffffffff1660e01b815260040161099b9493929190611a16565b600060405180830381600087803b1580156109b557600080fd5b505af11580156109c9573d6000803e3d6000fd5b5050505050505050505050565b6002602052816000526040600020602052806000526040600020600091509150505481565b7f000000000000000000000000000000000000000000000000000000000000000081565b60008054906101000a900473ffffffffffffffffffffffffffffffffffffffff1673ffffffffffffffffffffffffffffffffffffffff163373ffffffffffffffffffffffffffffffffffffffff1614610aad576040517f08c379a0000000000000000000000000000000000000000000000000000000008152600401610aa490611ade565b60405180910390fd5b80600560008373ffffffffffffffffffffffffffffffffffffffff1673ffffffffffffffffffffffffffffffffffffffff16815260200190815260200160002060006101000a81548173ffffffffffffffffffffffffffffffffffffffff021916908373ffffffffffffffffffffffffffffffffffffffff16021790555050565b6000806000806000807f000000000000000000000000000000000000000000000000000000000000000073ffffffffffffffffffffffffffffffffffffffff1663bf92857c886040518263ffffffff1660e01b8152600401610b909190611905565b60c060405180830381865afa158015610bad573d6000803e3d6000fd5b505050506040513d601f19601f82011682018060405250810190610bd19190611afe565b95509550955095509550955091939550919395565b60036020528060005260406000206000915090505481565b60046020528060005260406000206000915090505481565b6000600560008373ffffffffffffffffffffffffffffffffffffffff1673ffffffffffffffffffffffffffffffffffffffff16815260200190815260200160002060009054906101000a900473ffffffffffffffffffffffffffffffffffffffff1673ffffffffffffffffffffffffffffffffffffffff1663dd62ed3e33306040518363ffffffff1660e01b8152600401610cb2929190611b8b565b602060405180830381865afa158015610ccf573d6000803e3d6000fd5b505050506040513d601f19601f82011682018060405250810190610cf39190611935565b9050919050565b600082600460008473ffffffffffffffffffffffffffffffffffffffff1673ffffffffffffffffffffffffffffffffffffffff1681526020019081526020016000206000828254610d4b91906119c5565b9250508190555082600160003373ffffffffffffffffffffffffffffffffffffffff1673ffffffffffffffffffffffffffffffffffffffff16815260200190815260200160002060008473ffffffffffffffffffffffffffffffffffffffff1673ffffffffffffffffffffffffffffffffffffffff1681526020019081526020016000206000828254610dde91906119c5565b92505081905550600560008373ffffffffffffffffffffffffffffffffffffffff1673ffffffffffffffffffffffffffffffffffffffff16815260200190815260200160002060009054906101000a900473ffffffffffffffffffffffffffffffffffffffff1673ffffffffffffffffffffffffffffffffffffffff166323b872dd3330866040518463ffffffff1660e01b8152600401610e8193929190611bb4565b6020604051808303816000875af1158015610ea0573d6000803e3d6000fd5b505050506040513d601f19601f82011682018060405250810190610ec491906118d8565b905092915050565b6000600560008373ffffffffffffffffffffffffffffffffffffffff1673ffffffffffffffffffffffffffffffffffffffff16815260200190815260200160002060009054906101000a900473ffffffffffffffffffffffffffffffffffffffff1673ffffffffffffffffffffffffffffffffffffffff1663dd62ed3e85856040518363ffffffff1660e01b8152600401610f68929190611b8b565b602060405180830381865afa158015610f85573d6000803e3d6000fd5b505050506040513d601f19601f82011682018060405250810190610fa99190611935565b90509392505050565b60008054906101000a900473ffffffffffffffffffffffffffffffffffffffff1673ffffffffffffffffffffffffffffffffffffffff163373ffffffffffffffffffffffffffffffffffffffff1614611040576040517f08c379a000000000000000000000000000000000000000000000000000000000815260040161103790611c5d565b60405180910390fd5b81600160003373ffffffffffffffffffffffffffffffffffffffff1673ffffffffffffffffffffffffffffffffffffffff16815260200190815260200160002060008373ffffffffffffffffffffffffffffffffffffffff1673ffffffffffffffffffffffffffffffffffffffff1681526020019081526020016000205410156110c957600080fd5b81600160003373ffffffffffffffffffffffffffffffffffffffff1673ffffffffffffffffffffffffffffffffffffffff16815260200190815260200160002060008373ffffffffffffffffffffffffffffffffffffffff1673ffffffffffffffffffffffffffffffffffffffff16815260200190815260200160002060008282546111559190611991565b92505081905550600560008273ffffffffffffffffffffffffffffffffffffffff1673ffffffffffffffffffffffffffffffffffffffff16815260200190815260200160002060009054906101000a900473ffffffffffffffffffffffffffffffffffffffff1673ffffffffffffffffffffffffffffffffffffffff166323b872dd3033856040518463ffffffff1660e01b81526004016111f893929190611bb4565b6020604051808303816000875af1158015611217573d6000803e3d6000fd5b505050506040513d601f19601f8201168201806040525081019061123b91906118d8565b505050565b7f000000000000000000000000000000000000000000000000000000000000000073ffffffffffffffffffffffffffffffffffffffff166373bd43ad826040518263ffffffff1660e01b81526004016112999190611680565b6020604051808303816000875af11580156112b8573d6000803e3d6000fd5b505050506040513d601f19601f820116820180604052508101906112dc9190611935565b5050565b6000808290506000859050600085905086600460008573ffffffffffffffffffffffffffffffffffffffff1673ffffffffffffffffffffffffffffffffffffffff168152602001908152602001600020600082825461133f91906119c5565b9250508190555081600360008573ffffffffffffffffffffffffffffffffffffffff1673ffffffffffffffffffffffffffffffffffffffff16815260200190815260200160002060008282546113959190611991565b925050819055507f000000000000000000000000000000000000000000000000000000000000000073ffffffffffffffffffffffffffffffffffffffff166369328dec8484846040518463ffffffff1660e01b81526004016113f993929190611c7d565b6020604051808303816000875af1158015611418573d6000803e3d6000fd5b505050506040513d601f19601f8201168201806040525081019061143c9190611935565b93505050509392505050565b7f000000000000000000000000000000000000000000000000000000000000000081565b600073ffffffffffffffffffffffffffffffffffffffff82169050919050565b6000819050919050565b60006114b16114ac6114a78461146c565b61148c565b61146c565b9050919050565b60006114c382611496565b9050919050565b60006114d5826114b8565b9050919050565b6114e5816114ca565b82525050565b600060208201905061150060008301846114dc565b92915050565b6000611511826114b8565b9050919050565b61152181611506565b82525050565b600060208201905061153c6000830184611518565b92915050565b600080fd5b6000819050919050565b61155a81611547565b811461156557600080fd5b50565b60008135905061157781611551565b92915050565b60006115888261146c565b9050919050565b6115988161157d565b81146115a357600080fd5b50565b6000813590506115b58161158f565b92915050565b600080604083850312156115d2576115d1611542565b5b60006115e085828601611568565b92505060206115f1858286016115a6565b9150509250929050565b60008115159050919050565b611610816115fb565b82525050565b600060208201905061162b6000830184611607565b92915050565b6000806040838503121561164857611647611542565b5b6000611656858286016115a6565b9250506020611667858286016115a6565b9150509250929050565b61167a81611547565b82525050565b60006020820190506116956000830184611671565b92915050565b6000806000606084860312156116b4576116b3611542565b5b60006116c286828701611568565b93505060206116d3868287016115a6565b92505060406116e4868287016115a6565b9150509250925092565b60006116f9826114b8565b9050919050565b611709816116ee565b82525050565b60006020820190506117246000830184611700565b92915050565b6000602082840312156117405761173f611542565b5b600061174e848285016115a6565b91505092915050565b600060c08201905061176c6000830189611671565b6117796020830188611671565b6117866040830187611671565b6117936060830186611671565b6117a06080830185611671565b6117ad60a0830184611671565b979650505050505050565b6000806000606084860312156117d1576117d0611542565b5b60006117df868287016115a6565b93505060206117f0868287016115a6565b9250506040611801868287016115a6565b9150509250925092565b60006020828403121561182157611820611542565b5b600061182f84828501611568565b91505092915050565b6000611843826114b8565b9050919050565b61185381611838565b82525050565b600060208201905061186e600083018461184a565b92915050565b61187d8161157d565b82525050565b60006040820190506118986000830185611874565b6118a56020830184611671565b9392505050565b6118b5816115fb565b81146118c057600080fd5b50565b6000815190506118d2816118ac565b92915050565b6000602082840312156118ee576118ed611542565b5b60006118fc848285016118c3565b91505092915050565b600060208201905061191a6000830184611874565b92915050565b60008151905061192f81611551565b92915050565b60006020828403121561194b5761194a611542565b5b600061195984828501611920565b91505092915050565b7f4e487b7100000000000000000000000000000000000000000000000000000000600052601160045260246000fd5b600061199c82611547565b91506119a783611547565b92508282039050818111156119bf576119be611962565b5b92915050565b60006119d082611547565b91506119db83611547565b92508282019050808211156119f3576119f2611962565b5b92915050565b600061ffff82169050919050565b611a10816119f9565b82525050565b6000608082019050611a2b6000830187611874565b611a386020830186611671565b611a456040830185611874565b611a526060830184611a07565b95945050505050565b600082825260208201905092915050565b7f4f6e6c79206f776e65722063616e2061646420616c6c6f77656420746f6b656e60008201527f7300000000000000000000000000000000000000000000000000000000000000602082015250565b6000611ac8602183611a5b565b9150611ad382611a6c565b604082019050919050565b60006020820190508181036000830152611af781611abb565b9050919050565b60008060008060008060c08789031215611b1b57611b1a611542565b5b6000611b2989828a01611920565b9650506020611b3a89828a01611920565b9550506040611b4b89828a01611920565b9450506060611b5c89828a01611920565b9350506080611b6d89828a01611920565b92505060a0611b7e89828a01611920565b9150509295509295509295565b6000604082019050611ba06000830185611874565b611bad6020830184611874565b9392505050565b6000606082019050611bc96000830186611874565b611bd66020830185611874565b611be36040830184611671565b949350505050565b7f4f6e6c792074686520636f6e7472616374206f776e65722063616e2063616c6c60008201527f20746869732066756e6374696f6e000000000000000000000000000000000000602082015250565b6000611c47602e83611a5b565b9150611c5282611beb565b604082019050919050565b60006020820190508181036000830152611c7681611c3a565b9050919050565b6000606082019050611c926000830186611874565b611c9f6020830185611671565b611cac6040830184611874565b94935050505056fea2646970667358221220262e668256c8fc72876a8e16f5dc76308847682b1a0dcb707fa06c8c54422f6864736f6c63430008130033",
  "linkReferences": {},
  "deployedLinkReferences": {}
}