{
  "_format": "hh-sol-artifact-1",
  "contractName": "AaveInteractions",
  "sourceName": "contracts/AaveInteractions.sol",
  "abi": [
    {
      "inputs": [],
      "stateMutability": "nonpayable",
      "type": "constructor"
    },
    {
      "inputs": [],
      "name": "ADDRESSES_PROVIDER",
      "outputs": [
        {
          "internalType": "contract IPoolAddressesProvider",
          "name": "",
          "type": "address"
        }
      ],
      "stateMutability": "view",
      "type": "function"
    },
    {
      "inputs": [],
      "name": "POOL",
      "outputs": [
        {
          "internalType": "contract IPool",
          "name": "",
          "type": "address"
        }
      ],
      "stateMutability": "view",
      "type": "function"
    },
    {
      "inputs": [],
      "name": "POOL_DATA",
      "outputs": [
        {
          "internalType": "contract IPoolDataProvider",
          "name": "",
          "type": "address"
        }
      ],
      "stateMutability": "view",
      "type": "function"
    },
    {
      "inputs": [
        {
          "internalType": "address",
          "name": "_contractAddress",
          "type": "address"
        },
        {
          "internalType": "address",
          "name": "_poolContractAddress",
          "type": "address"
        },
        {
          "internalType": "address",
          "name": "_tokenAddress",
          "type": "address"
        }
      ],
      "name": "allowanceAaveTransfer",
      "outputs": [
        {
          "internalType": "uint256",
          "name": "",
          "type": "uint256"
        }
      ],
      "stateMutability": "view",
      "type": "function"
    },
    {
      "inputs": [
        {
          "internalType": "address",
          "name": "_tokenAddress",
          "type": "address"
        }
      ],
      "name": "allowanceContractTransfer",
      "outputs": [
        {
          "internalType": "uint256",
          "name": "",
          "type": "uint256"
        }
      ],
      "stateMutability": "view",
      "type": "function"
    },
    {
      "inputs": [
        {
          "internalType": "address",
          "name": "_tokenAddress",
          "type": "address"
        }
      ],
      "name": "allowedToken",
      "outputs": [],
      "stateMutability": "nonpayable",
      "type": "function"
    },
    {
      "inputs": [
        {
          "internalType": "uint256",
          "name": "_amount",
          "type": "uint256"
        },
        {
          "internalType": "address",
          "name": "_poolContractAddress",
          "type": "address"
        },
        {
          "internalType": "address",
          "name": "_tokenAddress",
          "type": "address"
        }
      ],
      "name": "approveAaveTransfer",
      "outputs": [
        {
          "internalType": "bool",
          "name": "",
          "type": "bool"
        }
      ],
      "stateMutability": "nonpayable",
      "type": "function"
    },
    {
      "inputs": [
        {
          "internalType": "uint256",
          "name": "_amount",
          "type": "uint256"
        },
        {
          "internalType": "address",
          "name": "_tokenAddress",
          "type": "address"
        }
      ],
      "name": "approveContractTransfer",
      "outputs": [
        {
          "internalType": "bool",
          "name": "",
          "type": "bool"
        }
      ],
      "stateMutability": "nonpayable",
      "type": "function"
    },
    {
      "inputs": [
        {
          "internalType": "uint256",
          "name": "_amount",
          "type": "uint256"
        },
        {
          "internalType": "address",
          "name": "_tokenAddress",
          "type": "address"
        }
      ],
      "name": "depositToContract",
      "outputs": [
        {
          "internalType": "bool",
          "name": "",
          "type": "bool"
        }
      ],
      "stateMutability": "nonpayable",
      "type": "function"
    },
    {
      "inputs": [
        {
          "internalType": "address",
          "name": "_contractAddress",
          "type": "address"
        },
        {
          "internalType": "address",
          "name": "_tokenAddress",
          "type": "address"
        }
      ],
      "name": "getBalanceContract",
      "outputs": [
        {
          "internalType": "uint256",
          "name": "",
          "type": "uint256"
        }
      ],
      "stateMutability": "view",
      "type": "function"
    },
    {
      "inputs": [
        {
          "internalType": "address",
          "name": "_contractAddress",
          "type": "address"
        }
      ],
      "name": "getContractDataAave",
      "outputs": [
        {
          "internalType": "uint256",
          "name": "totalCollateralBase",
          "type": "uint256"
        },
        {
          "internalType": "uint256",
          "name": "totalDebtBase",
          "type": "uint256"
        },
        {
          "internalType": "uint256",
          "name": "availableBorrowsBase",
          "type": "uint256"
        },
        {
          "internalType": "uint256",
          "name": "currentLiquidationThreshold",
          "type": "uint256"
        },
        {
          "internalType": "uint256",
          "name": "ltv",
          "type": "uint256"
        },
        {
          "internalType": "uint256",
          "name": "healthFactor",
          "type": "uint256"
        }
      ],
      "stateMutability": "view",
      "type": "function"
    },
    {
      "inputs": [
        {
          "internalType": "address",
          "name": "",
          "type": "address"
        }
      ],
      "name": "poolValueAave",
      "outputs": [
        {
          "internalType": "uint256",
          "name": "",
          "type": "uint256"
        }
      ],
      "stateMutability": "view",
      "type": "function"
    },
    {
      "inputs": [
        {
          "internalType": "address",
          "name": "",
          "type": "address"
        }
      ],
      "name": "poolValueToken",
      "outputs": [
        {
          "internalType": "uint256",
          "name": "",
          "type": "uint256"
        }
      ],
      "stateMutability": "view",
      "type": "function"
    },
    {
      "inputs": [
        {
          "internalType": "uint256",
          "name": "_amount",
          "type": "uint256"
        },
        {
          "internalType": "address",
          "name": "_aTokenRecieverAddress",
          "type": "address"
        },
        {
          "internalType": "address",
          "name": "_tokenAddress",
          "type": "address"
        }
      ],
      "name": "supplyLiquidityAave",
      "outputs": [],
      "stateMutability": "nonpayable",
      "type": "function"
    },
    {
      "inputs": [
        {
          "internalType": "address",
          "name": "",
          "type": "address"
        },
        {
          "internalType": "address",
          "name": "",
          "type": "address"
        }
      ],
      "name": "userAccBalAave",
      "outputs": [
        {
          "internalType": "uint256",
          "name": "",
          "type": "uint256"
        }
      ],
      "stateMutability": "view",
      "type": "function"
    },
    {
      "inputs": [
        {
          "internalType": "address",
          "name": "",
          "type": "address"
        },
        {
          "internalType": "address",
          "name": "",
          "type": "address"
        }
      ],
      "name": "userAccBalContract",
      "outputs": [
        {
          "internalType": "uint256",
          "name": "",
          "type": "uint256"
        }
      ],
      "stateMutability": "view",
      "type": "function"
    },
    {
      "inputs": [
        {
          "internalType": "uint256",
          "name": "_amount",
          "type": "uint256"
        },
        {
          "internalType": "address",
          "name": "_tokenAddress",
          "type": "address"
        }
      ],
      "name": "withdrawFromContract",
      "outputs": [],
      "stateMutability": "nonpayable",
      "type": "function"
    },
    {
      "inputs": [
        {
          "internalType": "uint256",
          "name": "_amount",
          "type": "uint256"
        },
        {
          "internalType": "address",
          "name": "_contractAddress",
          "type": "address"
        },
        {
          "internalType": "address",
          "name": "_tokenAddress",
          "type": "address"
        }
      ],
      "name": "withdrawLiquidityAave",
      "outputs": [
        {
          "internalType": "uint256",
          "name": "",
          "type": "uint256"
        }
      ],
      "stateMutability": "nonpayable",
      "type": "function"
    },
    {
      "stateMutability": "payable",
      "type": "receive"
    }
  ],
  "bytecode": "0x61014060405273f14f9596430931e177469715c591513308244e8f73ffffffffffffffffffffffffffffffffffffffff1660e09073ffffffffffffffffffffffffffffffffffffffff1681525073faf6a49b4657d9c8dda675c41cb9a05a94d3e9e973ffffffffffffffffffffffffffffffffffffffff166101009073ffffffffffffffffffffffffffffffffffffffff1681525073eb7a892bb04a8f836bdeebbf60897a7af1bf5d7f73ffffffffffffffffffffffffffffffffffffffff166101209073ffffffffffffffffffffffffffffffffffffffff16815250348015620000e957600080fd5b506101205173ffffffffffffffffffffffffffffffffffffffff1660808173ffffffffffffffffffffffffffffffffffffffff168152505060805173ffffffffffffffffffffffffffffffffffffffff1663026b1d5f6040518163ffffffff1660e01b8152600401602060405180830381865afa1580156200016f573d6000803e3d6000fd5b505050506040513d601f19601f8201168201806040525081019062000195919062000425565b73ffffffffffffffffffffffffffffffffffffffff1660a08173ffffffffffffffffffffffffffffffffffffffff168152505060805173ffffffffffffffffffffffffffffffffffffffff1663026b1d5f6040518163ffffffff1660e01b8152600401602060405180830381865afa15801562000216573d6000803e3d6000fd5b505050506040513d601f19601f820116820180604052508101906200023c919062000425565b73ffffffffffffffffffffffffffffffffffffffff1660c08173ffffffffffffffffffffffffffffffffffffffff1681525050336000806101000a81548173ffffffffffffffffffffffffffffffffffffffff021916908373ffffffffffffffffffffffffffffffffffffffff16021790555060e0516005600060e05173ffffffffffffffffffffffffffffffffffffffff1673ffffffffffffffffffffffffffffffffffffffff16815260200190815260200160002060006101000a81548173ffffffffffffffffffffffffffffffffffffffff021916908373ffffffffffffffffffffffffffffffffffffffff16021790555061010051600560006101005173ffffffffffffffffffffffffffffffffffffffff1673ffffffffffffffffffffffffffffffffffffffff16815260200190815260200160002060006101000a81548173ffffffffffffffffffffffffffffffffffffffff021916908373ffffffffffffffffffffffffffffffffffffffff16021790555062000457565b600080fd5b600073ffffffffffffffffffffffffffffffffffffffff82169050919050565b6000620003ed82620003c0565b9050919050565b620003ff81620003e0565b81146200040b57600080fd5b50565b6000815190506200041f81620003f4565b92915050565b6000602082840312156200043e576200043d620003bb565b5b60006200044e848285016200040e565b91505092915050565b60805160a05160c05160e0516101005161012051611b53620004b3600039600050506000505060005050600061131c0152600081816108b00152818161096f01528181610aab0152611270015260006104f80152611b536000f3fe60806040526004361061010d5760003560e01c806375d2e5dd11610095578063889830911161006457806388983091146103eb5780638b321c5d146104285780639605f50514610465578063c40abdbc1461048e578063f1f6f9c2146104cb57610114565b806375d2e5dd146102f25780638176e08114610334578063827c032914610371578063884913db146103ae57610114565b8063327840db116100dc578063327840db146101fb578063390dc8991461023857806349c56e6c146102615780637535d2461461029e578063756742f8146102c957610114565b80630542975c1461011957806319fd18f1146101445780632ef0c3951461018157806331d84f51146101be57610114565b3661011457005b600080fd5b34801561012557600080fd5b5061012e6104f6565b60405161013b91906113bd565b60405180910390f35b34801561015057600080fd5b5061016b60048036038101906101669190611451565b61051a565b60405161017891906114ac565b60405180910390f35b34801561018d57600080fd5b506101a860048036038101906101a391906114c7565b610601565b6040516101b59190611516565b60405180910390f35b3480156101ca57600080fd5b506101e560048036038101906101e09190611531565b610626565b6040516101f291906114ac565b60405180910390f35b34801561020757600080fd5b50610222600480360381019061021d91906114c7565b61070e565b60405161022f9190611516565b60405180910390f35b34801561024457600080fd5b5061025f600480360381019061025a9190611531565b6107f1565b005b34801561026d57600080fd5b50610288600480360381019061028391906114c7565b610948565b6040516102959190611516565b60405180910390f35b3480156102aa57600080fd5b506102b361096d565b6040516102c091906115a5565b60405180910390f35b3480156102d557600080fd5b506102f060048036038101906102eb91906115c0565b610991565b005b3480156102fe57600080fd5b50610319600480360381019061031491906115c0565b610aa0565b60405161032b969594939291906115ed565b60405180910390f35b34801561034057600080fd5b5061035b600480360381019061035691906115c0565b610b58565b6040516103689190611516565b60405180910390f35b34801561037d57600080fd5b50610398600480360381019061039391906115c0565b610b70565b6040516103a59190611516565b60405180910390f35b3480156103ba57600080fd5b506103d560048036038101906103d091906115c0565b610b88565b6040516103e29190611516565b60405180910390f35b3480156103f757600080fd5b50610412600480360381019061040d9190611451565b610c6c565b60405161041f91906114ac565b60405180910390f35b34801561043457600080fd5b5061044f600480360381019061044a919061164e565b610e3e565b60405161045c9190611516565b60405180910390f35b34801561047157600080fd5b5061048c60048036038101906104879190611451565b610f24565b005b34801561049a57600080fd5b506104b560048036038101906104b09190611531565b6111b2565b6040516104c29190611516565b60405180910390f35b3480156104d757600080fd5b506104e061131a565b6040516104ed91906116c2565b60405180910390f35b7f000000000000000000000000000000000000000000000000000000000000000081565b6000600560008373ffffffffffffffffffffffffffffffffffffffff1673ffffffffffffffffffffffffffffffffffffffff16815260200190815260200160002060009054906101000a900473ffffffffffffffffffffffffffffffffffffffff1673ffffffffffffffffffffffffffffffffffffffff1663095ea7b330856040518363ffffffff1660e01b81526004016105b69291906116ec565b6020604051808303816000875af11580156105d5573d6000803e3d6000fd5b505050506040513d601f19601f820116820180604052508101906105f99190611741565b905092915050565b6001602052816000526040600020602052806000526040600020600091509150505481565b6000600560008373ffffffffffffffffffffffffffffffffffffffff1673ffffffffffffffffffffffffffffffffffffffff16815260200190815260200160002060009054906101000a900473ffffffffffffffffffffffffffffffffffffffff1673ffffffffffffffffffffffffffffffffffffffff1663095ea7b384866040518363ffffffff1660e01b81526004016106c29291906116ec565b6020604051808303816000875af11580156106e1573d6000803e3d6000fd5b505050506040513d601f19601f820116820180604052508101906107059190611741565b90509392505050565b6000600560008373ffffffffffffffffffffffffffffffffffffffff1673ffffffffffffffffffffffffffffffffffffffff16815260200190815260200160002060009054906101000a900473ffffffffffffffffffffffffffffffffffffffff1673ffffffffffffffffffffffffffffffffffffffff166370a08231846040518263ffffffff1660e01b81526004016107a8919061176e565b602060405180830381865afa1580156107c5573d6000803e3d6000fd5b505050506040513d601f19601f820116820180604052508101906107e9919061179e565b905092915050565b600081905060008490506000849050600086600460008773ffffffffffffffffffffffffffffffffffffffff1673ffffffffffffffffffffffffffffffffffffffff168152602001908152602001600020600082825461085191906117fa565b9250508190555082600360008673ffffffffffffffffffffffffffffffffffffffff1673ffffffffffffffffffffffffffffffffffffffff16815260200190815260200160002060008282546108a7919061182e565b925050819055507f000000000000000000000000000000000000000000000000000000000000000073ffffffffffffffffffffffffffffffffffffffff1663617ba037858585856040518563ffffffff1660e01b815260040161090d949392919061187f565b600060405180830381600087803b15801561092757600080fd5b505af115801561093b573d6000803e3d6000fd5b5050505050505050505050565b6002602052816000526040600020602052806000526040600020600091509150505481565b7f000000000000000000000000000000000000000000000000000000000000000081565b60008054906101000a900473ffffffffffffffffffffffffffffffffffffffff1673ffffffffffffffffffffffffffffffffffffffff163373ffffffffffffffffffffffffffffffffffffffff1614610a1f576040517f08c379a0000000000000000000000000000000000000000000000000000000008152600401610a1690611947565b60405180910390fd5b80600560008373ffffffffffffffffffffffffffffffffffffffff1673ffffffffffffffffffffffffffffffffffffffff16815260200190815260200160002060006101000a81548173ffffffffffffffffffffffffffffffffffffffff021916908373ffffffffffffffffffffffffffffffffffffffff16021790555050565b6000806000806000807f000000000000000000000000000000000000000000000000000000000000000073ffffffffffffffffffffffffffffffffffffffff1663bf92857c886040518263ffffffff1660e01b8152600401610b02919061176e565b60c060405180830381865afa158015610b1f573d6000803e3d6000fd5b505050506040513d601f19601f82011682018060405250810190610b439190611967565b95509550955095509550955091939550919395565b60036020528060005260406000206000915090505481565b60046020528060005260406000206000915090505481565b6000600560008373ffffffffffffffffffffffffffffffffffffffff1673ffffffffffffffffffffffffffffffffffffffff16815260200190815260200160002060009054906101000a900473ffffffffffffffffffffffffffffffffffffffff1673ffffffffffffffffffffffffffffffffffffffff1663dd62ed3e33306040518363ffffffff1660e01b8152600401610c249291906119f4565b602060405180830381865afa158015610c41573d6000803e3d6000fd5b505050506040513d601f19601f82011682018060405250810190610c65919061179e565b9050919050565b600082600460008473ffffffffffffffffffffffffffffffffffffffff1673ffffffffffffffffffffffffffffffffffffffff1681526020019081526020016000206000828254610cbd919061182e565b9250508190555082600160003373ffffffffffffffffffffffffffffffffffffffff1673ffffffffffffffffffffffffffffffffffffffff16815260200190815260200160002060008473ffffffffffffffffffffffffffffffffffffffff1673ffffffffffffffffffffffffffffffffffffffff1681526020019081526020016000206000828254610d50919061182e565b92505081905550600560008373ffffffffffffffffffffffffffffffffffffffff1673ffffffffffffffffffffffffffffffffffffffff16815260200190815260200160002060009054906101000a900473ffffffffffffffffffffffffffffffffffffffff1673ffffffffffffffffffffffffffffffffffffffff166323b872dd3330866040518463ffffffff1660e01b8152600401610df393929190611a1d565b6020604051808303816000875af1158015610e12573d6000803e3d6000fd5b505050506040513d601f19601f82011682018060405250810190610e369190611741565b905092915050565b6000600560008373ffffffffffffffffffffffffffffffffffffffff1673ffffffffffffffffffffffffffffffffffffffff16815260200190815260200160002060009054906101000a900473ffffffffffffffffffffffffffffffffffffffff1673ffffffffffffffffffffffffffffffffffffffff1663dd62ed3e85856040518363ffffffff1660e01b8152600401610eda9291906119f4565b602060405180830381865afa158015610ef7573d6000803e3d6000fd5b505050506040513d601f19601f82011682018060405250810190610f1b919061179e565b90509392505050565b60008054906101000a900473ffffffffffffffffffffffffffffffffffffffff1673ffffffffffffffffffffffffffffffffffffffff163373ffffffffffffffffffffffffffffffffffffffff1614610fb2576040517f08c379a0000000000000000000000000000000000000000000000000000000008152600401610fa990611ac6565b60405180910390fd5b81600160003373ffffffffffffffffffffffffffffffffffffffff1673ffffffffffffffffffffffffffffffffffffffff16815260200190815260200160002060008373ffffffffffffffffffffffffffffffffffffffff1673ffffffffffffffffffffffffffffffffffffffff16815260200190815260200160002054101561103b57600080fd5b81600160003373ffffffffffffffffffffffffffffffffffffffff1673ffffffffffffffffffffffffffffffffffffffff16815260200190815260200160002060008373ffffffffffffffffffffffffffffffffffffffff1673ffffffffffffffffffffffffffffffffffffffff16815260200190815260200160002060008282546110c791906117fa565b92505081905550600560008273ffffffffffffffffffffffffffffffffffffffff1673ffffffffffffffffffffffffffffffffffffffff16815260200190815260200160002060009054906101000a900473ffffffffffffffffffffffffffffffffffffffff1673ffffffffffffffffffffffffffffffffffffffff166323b872dd3033856040518463ffffffff1660e01b815260040161116a93929190611a1d565b6020604051808303816000875af1158015611189573d6000803e3d6000fd5b505050506040513d601f19601f820116820180604052508101906111ad9190611741565b505050565b6000808290506000859050600085905086600460008573ffffffffffffffffffffffffffffffffffffffff1673ffffffffffffffffffffffffffffffffffffffff1681526020019081526020016000206000828254611211919061182e565b9250508190555081600360008573ffffffffffffffffffffffffffffffffffffffff1673ffffffffffffffffffffffffffffffffffffffff168152602001908152602001600020600082825461126791906117fa565b925050819055507f000000000000000000000000000000000000000000000000000000000000000073ffffffffffffffffffffffffffffffffffffffff166369328dec8484846040518463ffffffff1660e01b81526004016112cb93929190611ae6565b6020604051808303816000875af11580156112ea573d6000803e3d6000fd5b505050506040513d601f19601f8201168201806040525081019061130e919061179e565b93505050509392505050565b7f000000000000000000000000000000000000000000000000000000000000000081565b600073ffffffffffffffffffffffffffffffffffffffff82169050919050565b6000819050919050565b600061138361137e6113798461133e565b61135e565b61133e565b9050919050565b600061139582611368565b9050919050565b60006113a78261138a565b9050919050565b6113b78161139c565b82525050565b60006020820190506113d260008301846113ae565b92915050565b600080fd5b6000819050919050565b6113f0816113dd565b81146113fb57600080fd5b50565b60008135905061140d816113e7565b92915050565b600061141e8261133e565b9050919050565b61142e81611413565b811461143957600080fd5b50565b60008135905061144b81611425565b92915050565b60008060408385031215611468576114676113d8565b5b6000611476858286016113fe565b92505060206114878582860161143c565b9150509250929050565b60008115159050919050565b6114a681611491565b82525050565b60006020820190506114c1600083018461149d565b92915050565b600080604083850312156114de576114dd6113d8565b5b60006114ec8582860161143c565b92505060206114fd8582860161143c565b9150509250929050565b611510816113dd565b82525050565b600060208201905061152b6000830184611507565b92915050565b60008060006060848603121561154a576115496113d8565b5b6000611558868287016113fe565b93505060206115698682870161143c565b925050604061157a8682870161143c565b9150509250925092565b600061158f8261138a565b9050919050565b61159f81611584565b82525050565b60006020820190506115ba6000830184611596565b92915050565b6000602082840312156115d6576115d56113d8565b5b60006115e48482850161143c565b91505092915050565b600060c0820190506116026000830189611507565b61160f6020830188611507565b61161c6040830187611507565b6116296060830186611507565b6116366080830185611507565b61164360a0830184611507565b979650505050505050565b600080600060608486031215611667576116666113d8565b5b60006116758682870161143c565b93505060206116868682870161143c565b92505060406116978682870161143c565b9150509250925092565b60006116ac8261138a565b9050919050565b6116bc816116a1565b82525050565b60006020820190506116d760008301846116b3565b92915050565b6116e681611413565b82525050565b600060408201905061170160008301856116dd565b61170e6020830184611507565b9392505050565b61171e81611491565b811461172957600080fd5b50565b60008151905061173b81611715565b92915050565b600060208284031215611757576117566113d8565b5b60006117658482850161172c565b91505092915050565b600060208201905061178360008301846116dd565b92915050565b600081519050611798816113e7565b92915050565b6000602082840312156117b4576117b36113d8565b5b60006117c284828501611789565b91505092915050565b7f4e487b7100000000000000000000000000000000000000000000000000000000600052601160045260246000fd5b6000611805826113dd565b9150611810836113dd565b9250828203905081811115611828576118276117cb565b5b92915050565b6000611839826113dd565b9150611844836113dd565b925082820190508082111561185c5761185b6117cb565b5b92915050565b600061ffff82169050919050565b61187981611862565b82525050565b600060808201905061189460008301876116dd565b6118a16020830186611507565b6118ae60408301856116dd565b6118bb6060830184611870565b95945050505050565b600082825260208201905092915050565b7f4f6e6c79206f776e65722063616e2061646420616c6c6f77656420746f6b656e60008201527f7300000000000000000000000000000000000000000000000000000000000000602082015250565b60006119316021836118c4565b915061193c826118d5565b604082019050919050565b6000602082019050818103600083015261196081611924565b9050919050565b60008060008060008060c08789031215611984576119836113d8565b5b600061199289828a01611789565b96505060206119a389828a01611789565b95505060406119b489828a01611789565b94505060606119c589828a01611789565b93505060806119d689828a01611789565b92505060a06119e789828a01611789565b9150509295509295509295565b6000604082019050611a0960008301856116dd565b611a1660208301846116dd565b9392505050565b6000606082019050611a3260008301866116dd565b611a3f60208301856116dd565b611a4c6040830184611507565b949350505050565b7f4f6e6c792074686520636f6e7472616374206f776e65722063616e2063616c6c60008201527f20746869732066756e6374696f6e000000000000000000000000000000000000602082015250565b6000611ab0602e836118c4565b9150611abb82611a54565b604082019050919050565b60006020820190508181036000830152611adf81611aa3565b9050919050565b6000606082019050611afb60008301866116dd565b611b086020830185611507565b611b1560408301846116dd565b94935050505056fea2646970667358221220fdc6d4ac527f0b7d96c4aa1e5e3cb4d9b59689706e8087466cb08b8fe6a7c22c64736f6c63430008130033",
  "linkReferences": {},
  "deployedLinkReferences": {}
}