{
  "_format": "hh-sol-artifact-1",
  "contractName": "AaveInteractions",
  "sourceName": "contracts/AaveInteractions.sol",
  "abi": [
    {
      "inputs": [],
      "stateMutability": "nonpayable",
      "type": "constructor"
    },
    {
      "inputs": [],
      "name": "ADDRESSES_PROVIDER",
      "outputs": [
        {
          "internalType": "contract IPoolAddressesProvider",
          "name": "",
          "type": "address"
        }
      ],
      "stateMutability": "view",
      "type": "function"
    },
    {
      "inputs": [],
      "name": "POOL",
      "outputs": [
        {
          "internalType": "contract IPool",
          "name": "",
          "type": "address"
        }
      ],
      "stateMutability": "view",
      "type": "function"
    },
    {
      "inputs": [],
      "name": "POOL_DATA",
      "outputs": [
        {
          "internalType": "contract IPoolDataProvider",
          "name": "",
          "type": "address"
        }
      ],
      "stateMutability": "view",
      "type": "function"
    },
    {
      "inputs": [],
      "name": "UNI_CONTRACT",
      "outputs": [
        {
          "internalType": "contract UniswapInteractions",
          "name": "",
          "type": "address"
        }
      ],
      "stateMutability": "view",
      "type": "function"
    },
    {
      "inputs": [
        {
          "internalType": "address",
          "name": "_contractAddress",
          "type": "address"
        },
        {
          "internalType": "address",
          "name": "_poolContractAddress",
          "type": "address"
        },
        {
          "internalType": "address",
          "name": "_tokenAddress",
          "type": "address"
        }
      ],
      "name": "allowanceAaveTransfer",
      "outputs": [
        {
          "internalType": "uint256",
          "name": "",
          "type": "uint256"
        }
      ],
      "stateMutability": "view",
      "type": "function"
    },
    {
      "inputs": [
        {
          "internalType": "address",
          "name": "_tokenAddress",
          "type": "address"
        }
      ],
      "name": "allowanceContractTransfer",
      "outputs": [
        {
          "internalType": "uint256",
          "name": "",
          "type": "uint256"
        }
      ],
      "stateMutability": "view",
      "type": "function"
    },
    {
      "inputs": [
        {
          "internalType": "address",
          "name": "_tokenAddress",
          "type": "address"
        }
      ],
      "name": "allowedToken",
      "outputs": [],
      "stateMutability": "nonpayable",
      "type": "function"
    },
    {
      "inputs": [
        {
          "internalType": "uint256",
          "name": "_amount",
          "type": "uint256"
        },
        {
          "internalType": "address",
          "name": "_poolContractAddress",
          "type": "address"
        },
        {
          "internalType": "address",
          "name": "_tokenAddress",
          "type": "address"
        }
      ],
      "name": "approveAaveTransfer",
      "outputs": [
        {
          "internalType": "bool",
          "name": "",
          "type": "bool"
        }
      ],
      "stateMutability": "nonpayable",
      "type": "function"
    },
    {
      "inputs": [
        {
          "internalType": "uint256",
          "name": "_amount",
          "type": "uint256"
        },
        {
          "internalType": "address",
          "name": "_tokenAddress",
          "type": "address"
        }
      ],
      "name": "approveContractTransfer",
      "outputs": [
        {
          "internalType": "bool",
          "name": "",
          "type": "bool"
        }
      ],
      "stateMutability": "nonpayable",
      "type": "function"
    },
    {
      "inputs": [
        {
          "internalType": "uint256",
          "name": "_amount",
          "type": "uint256"
        },
        {
          "internalType": "address",
          "name": "_tokenAddress",
          "type": "address"
        }
      ],
      "name": "depositToContract",
      "outputs": [
        {
          "internalType": "bool",
          "name": "",
          "type": "bool"
        }
      ],
      "stateMutability": "nonpayable",
      "type": "function"
    },
    {
      "inputs": [
        {
          "internalType": "address",
          "name": "_contractAddress",
          "type": "address"
        },
        {
          "internalType": "address",
          "name": "_tokenAddress",
          "type": "address"
        }
      ],
      "name": "getBalanceContract",
      "outputs": [
        {
          "internalType": "uint256",
          "name": "",
          "type": "uint256"
        }
      ],
      "stateMutability": "view",
      "type": "function"
    },
    {
      "inputs": [
        {
          "internalType": "address",
          "name": "_contractAddress",
          "type": "address"
        }
      ],
      "name": "getContractDataAave",
      "outputs": [
        {
          "internalType": "uint256",
          "name": "totalCollateralBase",
          "type": "uint256"
        },
        {
          "internalType": "uint256",
          "name": "totalDebtBase",
          "type": "uint256"
        },
        {
          "internalType": "uint256",
          "name": "availableBorrowsBase",
          "type": "uint256"
        },
        {
          "internalType": "uint256",
          "name": "currentLiquidationThreshold",
          "type": "uint256"
        },
        {
          "internalType": "uint256",
          "name": "ltv",
          "type": "uint256"
        },
        {
          "internalType": "uint256",
          "name": "healthFactor",
          "type": "uint256"
        }
      ],
      "stateMutability": "view",
      "type": "function"
    },
    {
      "inputs": [
        {
          "internalType": "uint256",
          "name": "_amount",
          "type": "uint256"
        }
      ],
      "name": "interestSwap",
      "outputs": [
        {
          "internalType": "uint256",
          "name": "",
          "type": "uint256"
        }
      ],
      "stateMutability": "nonpayable",
      "type": "function"
    },
    {
      "inputs": [
        {
          "internalType": "address",
          "name": "_tokenAddress",
          "type": "address"
        }
      ],
      "name": "interestSwapAllowance",
      "outputs": [
        {
          "internalType": "uint256",
          "name": "",
          "type": "uint256"
        }
      ],
      "stateMutability": "view",
      "type": "function"
    },
    {
      "inputs": [
        {
          "internalType": "uint256",
          "name": "_amount",
          "type": "uint256"
        },
        {
          "internalType": "address",
          "name": "_tokenAddress",
          "type": "address"
        }
      ],
      "name": "interestSwapApproval",
      "outputs": [
        {
          "internalType": "bool",
          "name": "",
          "type": "bool"
        }
      ],
      "stateMutability": "nonpayable",
      "type": "function"
    },
    {
      "inputs": [
        {
          "internalType": "address",
          "name": "",
          "type": "address"
        }
      ],
      "name": "poolValueAave",
      "outputs": [
        {
          "internalType": "uint256",
          "name": "",
          "type": "uint256"
        }
      ],
      "stateMutability": "view",
      "type": "function"
    },
    {
      "inputs": [
        {
          "internalType": "address",
          "name": "",
          "type": "address"
        }
      ],
      "name": "poolValueToken",
      "outputs": [
        {
          "internalType": "uint256",
          "name": "",
          "type": "uint256"
        }
      ],
      "stateMutability": "view",
      "type": "function"
    },
    {
      "inputs": [
        {
          "internalType": "uint256",
          "name": "_amount",
          "type": "uint256"
        },
        {
          "internalType": "address",
          "name": "_aTokenRecieverAddress",
          "type": "address"
        },
        {
          "internalType": "address",
          "name": "_tokenAddress",
          "type": "address"
        }
      ],
      "name": "supplyLiquidityAave",
      "outputs": [],
      "stateMutability": "nonpayable",
      "type": "function"
    },
    {
      "inputs": [
        {
          "internalType": "address",
          "name": "",
          "type": "address"
        },
        {
          "internalType": "address",
          "name": "",
          "type": "address"
        }
      ],
      "name": "userAccBalAave",
      "outputs": [
        {
          "internalType": "uint256",
          "name": "",
          "type": "uint256"
        }
      ],
      "stateMutability": "view",
      "type": "function"
    },
    {
      "inputs": [
        {
          "internalType": "address",
          "name": "",
          "type": "address"
        },
        {
          "internalType": "address",
          "name": "",
          "type": "address"
        }
      ],
      "name": "userAccBalContract",
      "outputs": [
        {
          "internalType": "uint256",
          "name": "",
          "type": "uint256"
        }
      ],
      "stateMutability": "view",
      "type": "function"
    },
    {
      "inputs": [
        {
          "internalType": "uint256",
          "name": "_amount",
          "type": "uint256"
        },
        {
          "internalType": "address",
          "name": "_tokenAddress",
          "type": "address"
        }
      ],
      "name": "withdrawFromContract",
      "outputs": [],
      "stateMutability": "nonpayable",
      "type": "function"
    },
    {
      "inputs": [
        {
          "internalType": "uint256",
          "name": "_amount",
          "type": "uint256"
        },
        {
          "internalType": "address",
          "name": "_contractAddress",
          "type": "address"
        },
        {
          "internalType": "address",
          "name": "_tokenAddress",
          "type": "address"
        }
      ],
      "name": "withdrawLiquidityAave",
      "outputs": [
        {
          "internalType": "uint256",
          "name": "",
          "type": "uint256"
        }
      ],
      "stateMutability": "nonpayable",
      "type": "function"
    },
    {
      "stateMutability": "payable",
      "type": "receive"
    }
  ],
  "bytecode": "0x61018060405273d087ff96281dcf722aea82aca57e8545ea9e6c9673ffffffffffffffffffffffffffffffffffffffff166101009073ffffffffffffffffffffffffffffffffffffffff1681525073aa02a95942cb7d48ac8ad8c3b5d65e546ec3ecd373ffffffffffffffffffffffffffffffffffffffff166101209073ffffffffffffffffffffffffffffffffffffffff1681525073eb7a892bb04a8f836bdeebbf60897a7af1bf5d7f73ffffffffffffffffffffffffffffffffffffffff166101409073ffffffffffffffffffffffffffffffffffffffff16815250732065865839d7389acf33a96e1fcb7e6b00eebf4e73ffffffffffffffffffffffffffffffffffffffff166101609073ffffffffffffffffffffffffffffffffffffffff168152503480156200013257600080fd5b506101405173ffffffffffffffffffffffffffffffffffffffff1660808173ffffffffffffffffffffffffffffffffffffffff168152505060805173ffffffffffffffffffffffffffffffffffffffff1663026b1d5f6040518163ffffffff1660e01b8152600401602060405180830381865afa158015620001b8573d6000803e3d6000fd5b505050506040513d601f19601f82011682018060405250810190620001de9190620004a7565b73ffffffffffffffffffffffffffffffffffffffff1660a08173ffffffffffffffffffffffffffffffffffffffff168152505060805173ffffffffffffffffffffffffffffffffffffffff1663026b1d5f6040518163ffffffff1660e01b8152600401602060405180830381865afa1580156200025f573d6000803e3d6000fd5b505050506040513d601f19601f82011682018060405250810190620002859190620004a7565b73ffffffffffffffffffffffffffffffffffffffff1660c08173ffffffffffffffffffffffffffffffffffffffff1681525050336000806101000a81548173ffffffffffffffffffffffffffffffffffffffff021916908373ffffffffffffffffffffffffffffffffffffffff16021790555061010051600560006101005173ffffffffffffffffffffffffffffffffffffffff1673ffffffffffffffffffffffffffffffffffffffff16815260200190815260200160002060006101000a81548173ffffffffffffffffffffffffffffffffffffffff021916908373ffffffffffffffffffffffffffffffffffffffff16021790555061012051600560006101205173ffffffffffffffffffffffffffffffffffffffff1673ffffffffffffffffffffffffffffffffffffffff16815260200190815260200160002060006101000a81548173ffffffffffffffffffffffffffffffffffffffff021916908373ffffffffffffffffffffffffffffffffffffffff1602179055506101605173ffffffffffffffffffffffffffffffffffffffff1660e08173ffffffffffffffffffffffffffffffffffffffff1681525050620004d9565b600080fd5b600073ffffffffffffffffffffffffffffffffffffffff82169050919050565b60006200046f8262000442565b9050919050565b620004818162000462565b81146200048d57600080fd5b50565b600081519050620004a18162000476565b92915050565b600060208284031215620004c057620004bf6200043d565b5b6000620004d08482850162000490565b91505092915050565b60805160a05160c05160e05161010051610120516101405161016051611fc96200055960003960008181610bc60152610ee401526000505060005050600050506000818161062a015261065001526000611700015260008181610a8901528181610c4c01528181610d880152611654015260006106060152611fc96000f3fe6080604052600436106101395760003560e01c8063756742f8116100ab578063884913db1161006f578063884913db146104bc57806388983091146104f95780638b321c5d146105365780639605f50514610573578063c40abdbc1461059c578063f1f6f9c2146105d957610140565b8063756742f81461039a57806375d2e5dd146103c35780638176e08114610405578063827c032914610442578063877f5b071461047f57610140565b806331d84f51116100fd57806331d84f5114610252578063327840db1461028f578063390dc899146102cc57806349c56e6c146102f55780635debee04146103325780637535d2461461036f57610140565b80630542975c146101455780630b9cbe6814610170578063121a81de1461019b57806319fd18f1146101d85780632ef0c3951461021557610140565b3661014057005b600080fd5b34801561015157600080fd5b5061015a610604565b60405161016791906117a1565b60405180910390f35b34801561017c57600080fd5b50610185610628565b60405161019291906117dd565b60405180910390f35b3480156101a757600080fd5b506101c260048036038101906101bd9190611833565b61064c565b6040516101cf919061186f565b60405180910390f35b3480156101e457600080fd5b506101ff60048036038101906101fa91906118c8565b6106f3565b60405161020c9190611923565b60405180910390f35b34801561022157600080fd5b5061023c6004803603810190610237919061193e565b6107da565b604051610249919061186f565b60405180910390f35b34801561025e57600080fd5b506102796004803603810190610274919061197e565b6107ff565b6040516102869190611923565b60405180910390f35b34801561029b57600080fd5b506102b660048036038101906102b1919061193e565b6108e7565b6040516102c3919061186f565b60405180910390f35b3480156102d857600080fd5b506102f360048036038101906102ee919061197e565b6109ca565b005b34801561030157600080fd5b5061031c6004803603810190610317919061193e565b610b21565b604051610329919061186f565b60405180910390f35b34801561033e57600080fd5b50610359600480360381019061035491906119d1565b610b46565b604051610366919061186f565b60405180910390f35b34801561037b57600080fd5b50610384610c4a565b6040516103919190611a1f565b60405180910390f35b3480156103a657600080fd5b506103c160048036038101906103bc91906119d1565b610c6e565b005b3480156103cf57600080fd5b506103ea60048036038101906103e591906119d1565b610d7d565b6040516103fc96959493929190611a3a565b60405180910390f35b34801561041157600080fd5b5061042c600480360381019061042791906119d1565b610e35565b604051610439919061186f565b60405180910390f35b34801561044e57600080fd5b50610469600480360381019061046491906119d1565b610e4d565b604051610476919061186f565b60405180910390f35b34801561048b57600080fd5b506104a660048036038101906104a191906118c8565b610e65565b6040516104b39190611923565b60405180910390f35b3480156104c857600080fd5b506104e360048036038101906104de91906119d1565b610f6c565b6040516104f0919061186f565b60405180910390f35b34801561050557600080fd5b50610520600480360381019061051b91906118c8565b611050565b60405161052d9190611923565b60405180910390f35b34801561054257600080fd5b5061055d60048036038101906105589190611a9b565b611222565b60405161056a919061186f565b60405180910390f35b34801561057f57600080fd5b5061059a600480360381019061059591906118c8565b611308565b005b3480156105a857600080fd5b506105c360048036038101906105be919061197e565b611596565b6040516105d0919061186f565b60405180910390f35b3480156105e557600080fd5b506105ee6116fe565b6040516105fb9190611b0f565b60405180910390f35b7f000000000000000000000000000000000000000000000000000000000000000081565b7f000000000000000000000000000000000000000000000000000000000000000081565b60007f000000000000000000000000000000000000000000000000000000000000000073ffffffffffffffffffffffffffffffffffffffff1663793ea8d183306040518363ffffffff1660e01b81526004016106a9929190611b39565b6020604051808303816000875af11580156106c8573d6000803e3d6000fd5b505050506040513d601f19601f820116820180604052508101906106ec9190611b77565b9050919050565b6000600560008373ffffffffffffffffffffffffffffffffffffffff1673ffffffffffffffffffffffffffffffffffffffff16815260200190815260200160002060009054906101000a900473ffffffffffffffffffffffffffffffffffffffff1673ffffffffffffffffffffffffffffffffffffffff1663095ea7b330856040518363ffffffff1660e01b815260040161078f929190611ba4565b6020604051808303816000875af11580156107ae573d6000803e3d6000fd5b505050506040513d601f19601f820116820180604052508101906107d29190611bf9565b905092915050565b6001602052816000526040600020602052806000526040600020600091509150505481565b6000600560008373ffffffffffffffffffffffffffffffffffffffff1673ffffffffffffffffffffffffffffffffffffffff16815260200190815260200160002060009054906101000a900473ffffffffffffffffffffffffffffffffffffffff1673ffffffffffffffffffffffffffffffffffffffff1663095ea7b384866040518363ffffffff1660e01b815260040161089b929190611ba4565b6020604051808303816000875af11580156108ba573d6000803e3d6000fd5b505050506040513d601f19601f820116820180604052508101906108de9190611bf9565b90509392505050565b6000600560008373ffffffffffffffffffffffffffffffffffffffff1673ffffffffffffffffffffffffffffffffffffffff16815260200190815260200160002060009054906101000a900473ffffffffffffffffffffffffffffffffffffffff1673ffffffffffffffffffffffffffffffffffffffff166370a08231846040518263ffffffff1660e01b81526004016109819190611c26565b602060405180830381865afa15801561099e573d6000803e3d6000fd5b505050506040513d601f19601f820116820180604052508101906109c29190611b77565b905092915050565b600081905060008490506000849050600086600460008773ffffffffffffffffffffffffffffffffffffffff1673ffffffffffffffffffffffffffffffffffffffff1681526020019081526020016000206000828254610a2a9190611c70565b9250508190555082600360008673ffffffffffffffffffffffffffffffffffffffff1673ffffffffffffffffffffffffffffffffffffffff1681526020019081526020016000206000828254610a809190611ca4565b925050819055507f000000000000000000000000000000000000000000000000000000000000000073ffffffffffffffffffffffffffffffffffffffff1663617ba037858585856040518563ffffffff1660e01b8152600401610ae69493929190611cf5565b600060405180830381600087803b158015610b0057600080fd5b505af1158015610b14573d6000803e3d6000fd5b5050505050505050505050565b6002602052816000526040600020602052806000526040600020600091509150505481565b6000600560008373ffffffffffffffffffffffffffffffffffffffff1673ffffffffffffffffffffffffffffffffffffffff16815260200190815260200160002060009054906101000a900473ffffffffffffffffffffffffffffffffffffffff1673ffffffffffffffffffffffffffffffffffffffff1663dd62ed3e307f00000000000000000000000000000000000000000000000000000000000000006040518363ffffffff1660e01b8152600401610c02929190611d3a565b602060405180830381865afa158015610c1f573d6000803e3d6000fd5b505050506040513d601f19601f82011682018060405250810190610c439190611b77565b9050919050565b7f000000000000000000000000000000000000000000000000000000000000000081565b60008054906101000a900473ffffffffffffffffffffffffffffffffffffffff1673ffffffffffffffffffffffffffffffffffffffff163373ffffffffffffffffffffffffffffffffffffffff1614610cfc576040517f08c379a0000000000000000000000000000000000000000000000000000000008152600401610cf390611de6565b60405180910390fd5b80600560008373ffffffffffffffffffffffffffffffffffffffff1673ffffffffffffffffffffffffffffffffffffffff16815260200190815260200160002060006101000a81548173ffffffffffffffffffffffffffffffffffffffff021916908373ffffffffffffffffffffffffffffffffffffffff16021790555050565b6000806000806000807f000000000000000000000000000000000000000000000000000000000000000073ffffffffffffffffffffffffffffffffffffffff1663bf92857c886040518263ffffffff1660e01b8152600401610ddf9190611c26565b60c060405180830381865afa158015610dfc573d6000803e3d6000fd5b505050506040513d601f19601f82011682018060405250810190610e209190611e06565b95509550955095509550955091939550919395565b60036020528060005260406000206000915090505481565b60046020528060005260406000206000915090505481565b6000600560008373ffffffffffffffffffffffffffffffffffffffff1673ffffffffffffffffffffffffffffffffffffffff16815260200190815260200160002060009054906101000a900473ffffffffffffffffffffffffffffffffffffffff1673ffffffffffffffffffffffffffffffffffffffff1663095ea7b37f0000000000000000000000000000000000000000000000000000000000000000856040518363ffffffff1660e01b8152600401610f21929190611ba4565b6020604051808303816000875af1158015610f40573d6000803e3d6000fd5b505050506040513d601f19601f82011682018060405250810190610f649190611bf9565b905092915050565b6000600560008373ffffffffffffffffffffffffffffffffffffffff1673ffffffffffffffffffffffffffffffffffffffff16815260200190815260200160002060009054906101000a900473ffffffffffffffffffffffffffffffffffffffff1673ffffffffffffffffffffffffffffffffffffffff1663dd62ed3e33306040518363ffffffff1660e01b8152600401611008929190611d3a565b602060405180830381865afa158015611025573d6000803e3d6000fd5b505050506040513d601f19601f820116820180604052508101906110499190611b77565b9050919050565b600082600460008473ffffffffffffffffffffffffffffffffffffffff1673ffffffffffffffffffffffffffffffffffffffff16815260200190815260200160002060008282546110a19190611ca4565b9250508190555082600160003373ffffffffffffffffffffffffffffffffffffffff1673ffffffffffffffffffffffffffffffffffffffff16815260200190815260200160002060008473ffffffffffffffffffffffffffffffffffffffff1673ffffffffffffffffffffffffffffffffffffffff16815260200190815260200160002060008282546111349190611ca4565b92505081905550600560008373ffffffffffffffffffffffffffffffffffffffff1673ffffffffffffffffffffffffffffffffffffffff16815260200190815260200160002060009054906101000a900473ffffffffffffffffffffffffffffffffffffffff1673ffffffffffffffffffffffffffffffffffffffff166323b872dd3330866040518463ffffffff1660e01b81526004016111d793929190611e93565b6020604051808303816000875af11580156111f6573d6000803e3d6000fd5b505050506040513d601f19601f8201168201806040525081019061121a9190611bf9565b905092915050565b6000600560008373ffffffffffffffffffffffffffffffffffffffff1673ffffffffffffffffffffffffffffffffffffffff16815260200190815260200160002060009054906101000a900473ffffffffffffffffffffffffffffffffffffffff1673ffffffffffffffffffffffffffffffffffffffff1663dd62ed3e85856040518363ffffffff1660e01b81526004016112be929190611d3a565b602060405180830381865afa1580156112db573d6000803e3d6000fd5b505050506040513d601f19601f820116820180604052508101906112ff9190611b77565b90509392505050565b60008054906101000a900473ffffffffffffffffffffffffffffffffffffffff1673ffffffffffffffffffffffffffffffffffffffff163373ffffffffffffffffffffffffffffffffffffffff1614611396576040517f08c379a000000000000000000000000000000000000000000000000000000000815260040161138d90611f3c565b60405180910390fd5b81600160003373ffffffffffffffffffffffffffffffffffffffff1673ffffffffffffffffffffffffffffffffffffffff16815260200190815260200160002060008373ffffffffffffffffffffffffffffffffffffffff1673ffffffffffffffffffffffffffffffffffffffff16815260200190815260200160002054101561141f57600080fd5b81600160003373ffffffffffffffffffffffffffffffffffffffff1673ffffffffffffffffffffffffffffffffffffffff16815260200190815260200160002060008373ffffffffffffffffffffffffffffffffffffffff1673ffffffffffffffffffffffffffffffffffffffff16815260200190815260200160002060008282546114ab9190611c70565b92505081905550600560008273ffffffffffffffffffffffffffffffffffffffff1673ffffffffffffffffffffffffffffffffffffffff16815260200190815260200160002060009054906101000a900473ffffffffffffffffffffffffffffffffffffffff1673ffffffffffffffffffffffffffffffffffffffff166323b872dd3033856040518463ffffffff1660e01b815260040161154e93929190611e93565b6020604051808303816000875af115801561156d573d6000803e3d6000fd5b505050506040513d601f19601f820116820180604052508101906115919190611bf9565b505050565b6000808290506000859050600085905086600460008573ffffffffffffffffffffffffffffffffffffffff1673ffffffffffffffffffffffffffffffffffffffff16815260200190815260200160002060008282546115f59190611ca4565b9250508190555081600360008573ffffffffffffffffffffffffffffffffffffffff1673ffffffffffffffffffffffffffffffffffffffff168152602001908152602001600020600082825461164b9190611c70565b925050819055507f000000000000000000000000000000000000000000000000000000000000000073ffffffffffffffffffffffffffffffffffffffff166369328dec8484846040518463ffffffff1660e01b81526004016116af93929190611f5c565b6020604051808303816000875af11580156116ce573d6000803e3d6000fd5b505050506040513d601f19601f820116820180604052508101906116f29190611b77565b93505050509392505050565b7f000000000000000000000000000000000000000000000000000000000000000081565b600073ffffffffffffffffffffffffffffffffffffffff82169050919050565b6000819050919050565b600061176761176261175d84611722565b611742565b611722565b9050919050565b60006117798261174c565b9050919050565b600061178b8261176e565b9050919050565b61179b81611780565b82525050565b60006020820190506117b66000830184611792565b92915050565b60006117c78261176e565b9050919050565b6117d7816117bc565b82525050565b60006020820190506117f260008301846117ce565b92915050565b600080fd5b6000819050919050565b611810816117fd565b811461181b57600080fd5b50565b60008135905061182d81611807565b92915050565b600060208284031215611849576118486117f8565b5b60006118578482850161181e565b91505092915050565b611869816117fd565b82525050565b60006020820190506118846000830184611860565b92915050565b600061189582611722565b9050919050565b6118a58161188a565b81146118b057600080fd5b50565b6000813590506118c28161189c565b92915050565b600080604083850312156118df576118de6117f8565b5b60006118ed8582860161181e565b92505060206118fe858286016118b3565b9150509250929050565b60008115159050919050565b61191d81611908565b82525050565b60006020820190506119386000830184611914565b92915050565b60008060408385031215611955576119546117f8565b5b6000611963858286016118b3565b9250506020611974858286016118b3565b9150509250929050565b600080600060608486031215611997576119966117f8565b5b60006119a58682870161181e565b93505060206119b6868287016118b3565b92505060406119c7868287016118b3565b9150509250925092565b6000602082840312156119e7576119e66117f8565b5b60006119f5848285016118b3565b91505092915050565b6000611a098261176e565b9050919050565b611a19816119fe565b82525050565b6000602082019050611a346000830184611a10565b92915050565b600060c082019050611a4f6000830189611860565b611a5c6020830188611860565b611a696040830187611860565b611a766060830186611860565b611a836080830185611860565b611a9060a0830184611860565b979650505050505050565b600080600060608486031215611ab457611ab36117f8565b5b6000611ac2868287016118b3565b9350506020611ad3868287016118b3565b9250506040611ae4868287016118b3565b9150509250925092565b6000611af98261176e565b9050919050565b611b0981611aee565b82525050565b6000602082019050611b246000830184611b00565b92915050565b611b338161188a565b82525050565b6000604082019050611b4e6000830185611860565b611b5b6020830184611b2a565b9392505050565b600081519050611b7181611807565b92915050565b600060208284031215611b8d57611b8c6117f8565b5b6000611b9b84828501611b62565b91505092915050565b6000604082019050611bb96000830185611b2a565b611bc66020830184611860565b9392505050565b611bd681611908565b8114611be157600080fd5b50565b600081519050611bf381611bcd565b92915050565b600060208284031215611c0f57611c0e6117f8565b5b6000611c1d84828501611be4565b91505092915050565b6000602082019050611c3b6000830184611b2a565b92915050565b7f4e487b7100000000000000000000000000000000000000000000000000000000600052601160045260246000fd5b6000611c7b826117fd565b9150611c86836117fd565b9250828203905081811115611c9e57611c9d611c41565b5b92915050565b6000611caf826117fd565b9150611cba836117fd565b9250828201905080821115611cd257611cd1611c41565b5b92915050565b600061ffff82169050919050565b611cef81611cd8565b82525050565b6000608082019050611d0a6000830187611b2a565b611d176020830186611860565b611d246040830185611b2a565b611d316060830184611ce6565b95945050505050565b6000604082019050611d4f6000830185611b2a565b611d5c6020830184611b2a565b9392505050565b600082825260208201905092915050565b7f4f6e6c79206f776e65722063616e2061646420616c6c6f77656420746f6b656e60008201527f7300000000000000000000000000000000000000000000000000000000000000602082015250565b6000611dd0602183611d63565b9150611ddb82611d74565b604082019050919050565b60006020820190508181036000830152611dff81611dc3565b9050919050565b60008060008060008060c08789031215611e2357611e226117f8565b5b6000611e3189828a01611b62565b9650506020611e4289828a01611b62565b9550506040611e5389828a01611b62565b9450506060611e6489828a01611b62565b9350506080611e7589828a01611b62565b92505060a0611e8689828a01611b62565b9150509295509295509295565b6000606082019050611ea86000830186611b2a565b611eb56020830185611b2a565b611ec26040830184611860565b949350505050565b7f4f6e6c792074686520636f6e7472616374206f776e65722063616e2063616c6c60008201527f20746869732066756e6374696f6e000000000000000000000000000000000000602082015250565b6000611f26602e83611d63565b9150611f3182611eca565b604082019050919050565b60006020820190508181036000830152611f5581611f19565b9050919050565b6000606082019050611f716000830186611b2a565b611f7e6020830185611860565b611f8b6040830184611b2a565b94935050505056fea264697066735822122052983c3029d5c8c2ce1196a87d3a801f8acbd6f7ad15228e054bd41c203d11ff64736f6c63430008130033",
  "linkReferences": {},
  "deployedLinkReferences": {}
}