{
  "_format": "hh-sol-artifact-1",
  "contractName": "UniswapInteractions",
  "sourceName": "contracts/UniswapInteractions.sol",
  "abi": [
    {
      "inputs": [],
      "stateMutability": "nonpayable",
      "type": "constructor"
    },
    {
      "inputs": [],
      "name": "WETH",
      "outputs": [
        {
          "internalType": "address",
          "name": "",
          "type": "address"
        }
      ],
      "stateMutability": "view",
      "type": "function"
    },
    {
      "inputs": [],
      "name": "WMATIC",
      "outputs": [
        {
          "internalType": "address",
          "name": "",
          "type": "address"
        }
      ],
      "stateMutability": "view",
      "type": "function"
    },
    {
      "inputs": [],
      "name": "poolFee",
      "outputs": [
        {
          "internalType": "uint24",
          "name": "",
          "type": "uint24"
        }
      ],
      "stateMutability": "view",
      "type": "function"
    },
    {
      "inputs": [],
      "name": "routerAddress",
      "outputs": [
        {
          "internalType": "address",
          "name": "",
          "type": "address"
        }
      ],
      "stateMutability": "view",
      "type": "function"
    },
    {
      "inputs": [
        {
          "internalType": "uint256",
          "name": "amountIn",
          "type": "uint256"
        }
      ],
      "name": "swapExactInputSingle",
      "outputs": [
        {
          "internalType": "uint256",
          "name": "amountOut",
          "type": "uint256"
        }
      ],
      "stateMutability": "nonpayable",
      "type": "function"
    },
    {
      "inputs": [],
      "name": "swapRouter",
      "outputs": [
        {
          "internalType": "contract ISwapRouter",
          "name": "",
          "type": "address"
        }
      ],
      "stateMutability": "view",
      "type": "function"
    },
    {
      "inputs": [],
      "name": "wethToken",
      "outputs": [
        {
          "internalType": "contract IERC20",
          "name": "",
          "type": "address"
        }
      ],
      "stateMutability": "view",
      "type": "function"
    }
  ],
  "bytecode": "0x60a060405273e592427a0aece92de3edee1f18e0157c0586156473ffffffffffffffffffffffffffffffffffffffff1660809073ffffffffffffffffffffffffffffffffffffffff1681525073d087ff96281dcf722aea82aca57e8545ea9e6c966000806101000a81548173ffffffffffffffffffffffffffffffffffffffff021916908373ffffffffffffffffffffffffffffffffffffffff1602179055503480156100ab57600080fd5b506080516108066100d5600039600081816102010152818161034b015261040701526108066000f3fe608060405234801561001057600080fd5b506004361061007d5760003560e01c80634d95cad91161005b5780634d95cad9146100dc57806373bd43ad146100fa578063ad5c46481461012a578063c31c9c07146101485761007d565b8063089fe6aa146100825780633268cc56146100a05780634b57b0be146100be575b600080fd5b61008a610166565b6040516100979190610447565b60405180910390f35b6100a861016c565b6040516100b591906104a3565b60405180910390f35b6100c6610184565b6040516100d3919061051d565b60405180910390f35b6100e46101a8565b6040516100f191906104a3565b60405180910390f35b610114600480360381019061010f9190610573565b6101c0565b60405161012191906105af565b60405180910390f35b6101326103ed565b60405161013f91906104a3565b60405180910390f35b610150610405565b60405161015d91906105eb565b60405180910390f35b6101f481565b73e592427a0aece92de3edee1f18e0157c0586156481565b60008054906101000a900473ffffffffffffffffffffffffffffffffffffffff1681565b739c3c9283d3e44854697cd22d3faa240cfb03288981565b60008060009054906101000a900473ffffffffffffffffffffffffffffffffffffffff1673ffffffffffffffffffffffffffffffffffffffff1663095ea7b37f0000000000000000000000000000000000000000000000000000000000000000846040518363ffffffff1660e01b815260040161023e929190610606565b6020604051808303816000875af115801561025d573d6000803e3d6000fd5b505050506040513d601f19601f820116820180604052508101906102819190610667565b50600060405180610100016040528073d087ff96281dcf722aea82aca57e8545ea9e6c9673ffffffffffffffffffffffffffffffffffffffff168152602001739c3c9283d3e44854697cd22d3faa240cfb03288973ffffffffffffffffffffffffffffffffffffffff1681526020016101f462ffffff1681526020013073ffffffffffffffffffffffffffffffffffffffff16815260200142815260200184815260200160008152602001600073ffffffffffffffffffffffffffffffffffffffff1681525090507f000000000000000000000000000000000000000000000000000000000000000073ffffffffffffffffffffffffffffffffffffffff1663414bf389826040518263ffffffff1660e01b81526004016103a29190610772565b6020604051808303816000875af11580156103c1573d6000803e3d6000fd5b505050506040513d601f19601f820116820180604052508101906103e591906107a3565b915050919050565b73d087ff96281dcf722aea82aca57e8545ea9e6c9681565b7f000000000000000000000000000000000000000000000000000000000000000081565b600062ffffff82169050919050565b61044181610429565b82525050565b600060208201905061045c6000830184610438565b92915050565b600073ffffffffffffffffffffffffffffffffffffffff82169050919050565b600061048d82610462565b9050919050565b61049d81610482565b82525050565b60006020820190506104b86000830184610494565b92915050565b6000819050919050565b60006104e36104de6104d984610462565b6104be565b610462565b9050919050565b60006104f5826104c8565b9050919050565b6000610507826104ea565b9050919050565b610517816104fc565b82525050565b6000602082019050610532600083018461050e565b92915050565b600080fd5b6000819050919050565b6105508161053d565b811461055b57600080fd5b50565b60008135905061056d81610547565b92915050565b60006020828403121561058957610588610538565b5b60006105978482850161055e565b91505092915050565b6105a98161053d565b82525050565b60006020820190506105c460008301846105a0565b92915050565b60006105d5826104ea565b9050919050565b6105e5816105ca565b82525050565b600060208201905061060060008301846105dc565b92915050565b600060408201905061061b6000830185610494565b61062860208301846105a0565b9392505050565b60008115159050919050565b6106448161062f565b811461064f57600080fd5b50565b6000815190506106618161063b565b92915050565b60006020828403121561067d5761067c610538565b5b600061068b84828501610652565b91505092915050565b61069d81610482565b82525050565b6106ac81610429565b82525050565b6106bb8161053d565b82525050565b6106ca81610462565b82525050565b610100820160008201516106e76000850182610694565b5060208201516106fa6020850182610694565b50604082015161070d60408501826106a3565b5060608201516107206060850182610694565b50608082015161073360808501826106b2565b5060a082015161074660a08501826106b2565b5060c082015161075960c08501826106b2565b5060e082015161076c60e08501826106c1565b50505050565b60006101008201905061078860008301846106d0565b92915050565b60008151905061079d81610547565b92915050565b6000602082840312156107b9576107b8610538565b5b60006107c78482850161078e565b9150509291505056fea26469706673582212202f2df09730620e171b5bfcd045229ec3d37660331bc424f2c7fa78e9ca20a32f64736f6c63430008130033",
  "linkReferences": {},
  "deployedLinkReferences": {}
}