{
  "_format": "hh-sol-artifact-1",
  "contractName": "UniswapInteractions",
  "sourceName": "contracts/UniswapInteractions.sol",
  "abi": [
    {
      "inputs": [],
      "stateMutability": "nonpayable",
      "type": "constructor"
    },
    {
      "inputs": [],
      "name": "BCT",
      "outputs": [
        {
          "internalType": "address",
          "name": "",
          "type": "address"
        }
      ],
      "stateMutability": "view",
      "type": "function"
    },
    {
      "inputs": [],
      "name": "WMATIC",
      "outputs": [
        {
          "internalType": "address",
          "name": "",
          "type": "address"
        }
      ],
      "stateMutability": "view",
      "type": "function"
    },
    {
      "inputs": [],
      "name": "poolFee",
      "outputs": [
        {
          "internalType": "uint24",
          "name": "",
          "type": "uint24"
        }
      ],
      "stateMutability": "view",
      "type": "function"
    },
    {
      "inputs": [],
      "name": "routerAddress",
      "outputs": [
        {
          "internalType": "address",
          "name": "",
          "type": "address"
        }
      ],
      "stateMutability": "view",
      "type": "function"
    },
    {
      "inputs": [
        {
          "internalType": "uint256",
          "name": "amountIn",
          "type": "uint256"
        }
      ],
      "name": "swapExactInputSingle",
      "outputs": [
        {
          "internalType": "uint256",
          "name": "amountOut",
          "type": "uint256"
        }
      ],
      "stateMutability": "nonpayable",
      "type": "function"
    },
    {
      "inputs": [],
      "name": "swapRouter",
      "outputs": [
        {
          "internalType": "contract ISwapRouter",
          "name": "",
          "type": "address"
        }
      ],
      "stateMutability": "view",
      "type": "function"
    },
    {
      "inputs": [],
      "name": "wmaticToken",
      "outputs": [
        {
          "internalType": "contract IERC20",
          "name": "",
          "type": "address"
        }
      ],
      "stateMutability": "view",
      "type": "function"
    }
  ],
  "bytecode": "0x60a060405273e592427a0aece92de3edee1f18e0157c0586156473ffffffffffffffffffffffffffffffffffffffff1660809073ffffffffffffffffffffffffffffffffffffffff16815250730d500b1d8e8ef31e21c99d1db9a6444d3adf12706000806101000a81548173ffffffffffffffffffffffffffffffffffffffff021916908373ffffffffffffffffffffffffffffffffffffffff1602179055503480156100ab57600080fd5b50608051610bfa6100d5600039600081816101f0015281816102de01526103a60152610bfa6000f3fe608060405234801561001057600080fd5b506004361061007d5760003560e01c80634d95cad91161005b5780634d95cad9146100dc57806373bd43ad146100fa578063abf4be011461012a578063c31c9c07146101485761007d565b8063089fe6aa146100825780633268cc56146100a05780633b704588146100be575b600080fd5b61008a610166565b6040516100979190610693565b60405180910390f35b6100a861016c565b6040516100b591906106ef565b60405180910390f35b6100c6610184565b6040516100d391906106ef565b60405180910390f35b6100e461019c565b6040516100f191906106ef565b60405180910390f35b610114600480360381019061010f9190610745565b6101b4565b6040516101219190610781565b60405180910390f35b610132610380565b60405161013f91906107fb565b60405180910390f35b6101506103a4565b60405161015d9190610837565b60405180910390f35b610bb881565b73e592427a0aece92de3edee1f18e0157c0586156481565b732f800db0fdb5223b3c3f354886d907a671414a7f81565b730d500b1d8e8ef31e21c99d1db9a6444d3adf127081565b60006101d6730d500b1d8e8ef31e21c99d1db9a6444d3adf12703330856103c8565b610215730d500b1d8e8ef31e21c99d1db9a6444d3adf12707f000000000000000000000000000000000000000000000000000000000000000084610520565b6000604051806101000160405280730d500b1d8e8ef31e21c99d1db9a6444d3adf127073ffffffffffffffffffffffffffffffffffffffff168152602001732f800db0fdb5223b3c3f354886d907a671414a7f73ffffffffffffffffffffffffffffffffffffffff168152602001610bb862ffffff1681526020013073ffffffffffffffffffffffffffffffffffffffff16815260200142815260200184815260200160008152602001600073ffffffffffffffffffffffffffffffffffffffff1681525090507f000000000000000000000000000000000000000000000000000000000000000073ffffffffffffffffffffffffffffffffffffffff1663414bf389826040518263ffffffff1660e01b81526004016103359190610930565b6020604051808303816000875af1158015610354573d6000803e3d6000fd5b505050506040513d601f19601f820116820180604052508101906103789190610961565b915050919050565b60008054906101000a900473ffffffffffffffffffffffffffffffffffffffff1681565b7f000000000000000000000000000000000000000000000000000000000000000081565b6000808573ffffffffffffffffffffffffffffffffffffffff166323b872dd60e01b8686866040516024016103ff9392919061098e565b604051602081830303815290604052907bffffffffffffffffffffffffffffffffffffffffffffffffffffffff19166020820180517bffffffffffffffffffffffffffffffffffffffffffffffffffffffff83818316178352505050506040516104699190610a36565b6000604051808303816000865af19150503d80600081146104a6576040519150601f19603f3d011682016040523d82523d6000602084013e6104ab565b606091505b50915091508180156104d957506000815114806104d85750808060200190518101906104d79190610a85565b5b5b610518576040517f08c379a000000000000000000000000000000000000000000000000000000000815260040161050f90610b0f565b60405180910390fd5b505050505050565b6000808473ffffffffffffffffffffffffffffffffffffffff1663095ea7b360e01b8585604051602401610555929190610b2f565b604051602081830303815290604052907bffffffffffffffffffffffffffffffffffffffffffffffffffffffff19166020820180517bffffffffffffffffffffffffffffffffffffffffffffffffffffffff83818316178352505050506040516105bf9190610a36565b6000604051808303816000865af19150503d80600081146105fc576040519150601f19603f3d011682016040523d82523d6000602084013e610601565b606091505b509150915081801561062f575060008151148061062e57508080602001905181019061062d9190610a85565b5b5b61066e576040517f08c379a000000000000000000000000000000000000000000000000000000000815260040161066590610ba4565b60405180910390fd5b5050505050565b600062ffffff82169050919050565b61068d81610675565b82525050565b60006020820190506106a86000830184610684565b92915050565b600073ffffffffffffffffffffffffffffffffffffffff82169050919050565b60006106d9826106ae565b9050919050565b6106e9816106ce565b82525050565b600060208201905061070460008301846106e0565b92915050565b600080fd5b6000819050919050565b6107228161070f565b811461072d57600080fd5b50565b60008135905061073f81610719565b92915050565b60006020828403121561075b5761075a61070a565b5b600061076984828501610730565b91505092915050565b61077b8161070f565b82525050565b60006020820190506107966000830184610772565b92915050565b6000819050919050565b60006107c16107bc6107b7846106ae565b61079c565b6106ae565b9050919050565b60006107d3826107a6565b9050919050565b60006107e5826107c8565b9050919050565b6107f5816107da565b82525050565b600060208201905061081060008301846107ec565b92915050565b6000610821826107c8565b9050919050565b61083181610816565b82525050565b600060208201905061084c6000830184610828565b92915050565b61085b816106ce565b82525050565b61086a81610675565b82525050565b6108798161070f565b82525050565b610888816106ae565b82525050565b610100820160008201516108a56000850182610852565b5060208201516108b86020850182610852565b5060408201516108cb6040850182610861565b5060608201516108de6060850182610852565b5060808201516108f16080850182610870565b5060a082015161090460a0850182610870565b5060c082015161091760c0850182610870565b5060e082015161092a60e085018261087f565b50505050565b600061010082019050610946600083018461088e565b92915050565b60008151905061095b81610719565b92915050565b6000602082840312156109775761097661070a565b5b60006109858482850161094c565b91505092915050565b60006060820190506109a360008301866106e0565b6109b060208301856106e0565b6109bd6040830184610772565b949350505050565b600081519050919050565b600081905092915050565b60005b838110156109f95780820151818401526020810190506109de565b60008484015250505050565b6000610a10826109c5565b610a1a81856109d0565b9350610a2a8185602086016109db565b80840191505092915050565b6000610a428284610a05565b915081905092915050565b60008115159050919050565b610a6281610a4d565b8114610a6d57600080fd5b50565b600081519050610a7f81610a59565b92915050565b600060208284031215610a9b57610a9a61070a565b5b6000610aa984828501610a70565b91505092915050565b600082825260208201905092915050565b7f5354460000000000000000000000000000000000000000000000000000000000600082015250565b6000610af9600383610ab2565b9150610b0482610ac3565b602082019050919050565b60006020820190508181036000830152610b2881610aec565b9050919050565b6000604082019050610b4460008301856106e0565b610b516020830184610772565b9392505050565b7f5341000000000000000000000000000000000000000000000000000000000000600082015250565b6000610b8e600283610ab2565b9150610b9982610b58565b602082019050919050565b60006020820190508181036000830152610bbd81610b81565b905091905056fea26469706673582212204804d6615476849a69f8d387f6fafa9d6a03a2c1c73a01fa6dd2c5f9d9c4f3a064736f6c63430008130033",
  "linkReferences": {},
  "deployedLinkReferences": {}
}