{
  "_format": "hh-sol-artifact-1",
  "contractName": "UniswapInteractions",
  "sourceName": "contracts/UniswapInteractions.sol",
  "abi": [
    {
      "inputs": [
        {
          "internalType": "address",
          "name": "inToken",
          "type": "address"
        },
        {
          "internalType": "address",
          "name": "outToken",
          "type": "address"
        },
        {
          "internalType": "address",
          "name": "routerAddress",
          "type": "address"
        }
      ],
      "stateMutability": "nonpayable",
      "type": "constructor"
    },
    {
      "inputs": [],
      "name": "firstToken",
      "outputs": [
        {
          "internalType": "address",
          "name": "",
          "type": "address"
        }
      ],
      "stateMutability": "view",
      "type": "function"
    },
    {
      "inputs": [],
      "name": "poolFee",
      "outputs": [
        {
          "internalType": "uint24",
          "name": "",
          "type": "uint24"
        }
      ],
      "stateMutability": "view",
      "type": "function"
    },
    {
      "inputs": [],
      "name": "secondToken",
      "outputs": [
        {
          "internalType": "address",
          "name": "",
          "type": "address"
        }
      ],
      "stateMutability": "view",
      "type": "function"
    },
    {
      "inputs": [
        {
          "internalType": "uint256",
          "name": "amountIn",
          "type": "uint256"
        },
        {
          "internalType": "address",
          "name": "aaveContractAddress",
          "type": "address"
        }
      ],
      "name": "swapExactInputSingle",
      "outputs": [
        {
          "internalType": "uint256",
          "name": "amountOut",
          "type": "uint256"
        }
      ],
      "stateMutability": "nonpayable",
      "type": "function"
    },
    {
      "inputs": [],
      "name": "swapRouter",
      "outputs": [
        {
          "internalType": "contract ISwapRouter",
          "name": "",
          "type": "address"
        }
      ],
      "stateMutability": "view",
      "type": "function"
    }
  ],
  "bytecode": "0x60a060405234801561001057600080fd5b5060405162000dd838038062000dd883398181016040528101906100349190610154565b8073ffffffffffffffffffffffffffffffffffffffff1660808173ffffffffffffffffffffffffffffffffffffffff1681525050826000806101000a81548173ffffffffffffffffffffffffffffffffffffffff021916908373ffffffffffffffffffffffffffffffffffffffff16021790555081600160006101000a81548173ffffffffffffffffffffffffffffffffffffffff021916908373ffffffffffffffffffffffffffffffffffffffff1602179055505050506101a7565b600080fd5b600073ffffffffffffffffffffffffffffffffffffffff82169050919050565b6000610121826100f6565b9050919050565b61013181610116565b811461013c57600080fd5b50565b60008151905061014e81610128565b92915050565b60008060006060848603121561016d5761016c6100f1565b5b600061017b8682870161013f565b935050602061018c8682870161013f565b925050604061019d8682870161013f565b9150509250925092565b608051610c07620001d1600039600081816101a8015281816102b001526103b00152610c076000f3fe608060405234801561001057600080fd5b50600436106100575760003560e01c8063089fe6aa1461005c5780633bfd49da1461007a5780636bb0e77b14610098578063793ea8d1146100b6578063c31c9c07146100e6575b600080fd5b610064610104565b604051610071919061069d565b60405180910390f35b61008261010a565b60405161008f91906106f9565b60405180910390f35b6100a0610130565b6040516100ad91906106f9565b60405180910390f35b6100d060048036038101906100cb919061077b565b610154565b6040516100dd91906107ca565b60405180910390f35b6100ee6103ae565b6040516100fb9190610844565b60405180910390f35b610bb881565b600160009054906101000a900473ffffffffffffffffffffffffffffffffffffffff1681565b60008054906101000a900473ffffffffffffffffffffffffffffffffffffffff1681565b600061018260008054906101000a900473ffffffffffffffffffffffffffffffffffffffff168330866103d2565b6101cd60008054906101000a900473ffffffffffffffffffffffffffffffffffffffff167f00000000000000000000000000000000000000000000000000000000000000008561052a565b600060405180610100016040528060008054906101000a900473ffffffffffffffffffffffffffffffffffffffff1673ffffffffffffffffffffffffffffffffffffffff168152602001600160009054906101000a900473ffffffffffffffffffffffffffffffffffffffff1673ffffffffffffffffffffffffffffffffffffffff168152602001610bb862ffffff1681526020013073ffffffffffffffffffffffffffffffffffffffff16815260200142815260200185815260200160008152602001600073ffffffffffffffffffffffffffffffffffffffff1681525090507f000000000000000000000000000000000000000000000000000000000000000073ffffffffffffffffffffffffffffffffffffffff1663414bf389826040518263ffffffff1660e01b8152600401610307919061093d565b6020604051808303816000875af1158015610326573d6000803e3d6000fd5b505050506040513d601f19601f8201168201806040525081019061034a919061096e565b9150610379600160009054906101000a900473ffffffffffffffffffffffffffffffffffffffff16308461052a565b6103a7600160009054906101000a900473ffffffffffffffffffffffffffffffffffffffff163085856103d2565b5092915050565b7f000000000000000000000000000000000000000000000000000000000000000081565b6000808573ffffffffffffffffffffffffffffffffffffffff166323b872dd60e01b8686866040516024016104099392919061099b565b604051602081830303815290604052907bffffffffffffffffffffffffffffffffffffffffffffffffffffffff19166020820180517bffffffffffffffffffffffffffffffffffffffffffffffffffffffff83818316178352505050506040516104739190610a43565b6000604051808303816000865af19150503d80600081146104b0576040519150601f19603f3d011682016040523d82523d6000602084013e6104b5565b606091505b50915091508180156104e357506000815114806104e25750808060200190518101906104e19190610a92565b5b5b610522576040517f08c379a000000000000000000000000000000000000000000000000000000000815260040161051990610b1c565b60405180910390fd5b505050505050565b6000808473ffffffffffffffffffffffffffffffffffffffff1663095ea7b360e01b858560405160240161055f929190610b3c565b604051602081830303815290604052907bffffffffffffffffffffffffffffffffffffffffffffffffffffffff19166020820180517bffffffffffffffffffffffffffffffffffffffffffffffffffffffff83818316178352505050506040516105c99190610a43565b6000604051808303816000865af19150503d8060008114610606576040519150601f19603f3d011682016040523d82523d6000602084013e61060b565b606091505b509150915081801561063957506000815114806106385750808060200190518101906106379190610a92565b5b5b610678576040517f08c379a000000000000000000000000000000000000000000000000000000000815260040161066f90610bb1565b60405180910390fd5b5050505050565b600062ffffff82169050919050565b6106978161067f565b82525050565b60006020820190506106b2600083018461068e565b92915050565b600073ffffffffffffffffffffffffffffffffffffffff82169050919050565b60006106e3826106b8565b9050919050565b6106f3816106d8565b82525050565b600060208201905061070e60008301846106ea565b92915050565b600080fd5b6000819050919050565b61072c81610719565b811461073757600080fd5b50565b60008135905061074981610723565b92915050565b610758816106d8565b811461076357600080fd5b50565b6000813590506107758161074f565b92915050565b6000806040838503121561079257610791610714565b5b60006107a08582860161073a565b92505060206107b185828601610766565b9150509250929050565b6107c481610719565b82525050565b60006020820190506107df60008301846107bb565b92915050565b6000819050919050565b600061080a610805610800846106b8565b6107e5565b6106b8565b9050919050565b600061081c826107ef565b9050919050565b600061082e82610811565b9050919050565b61083e81610823565b82525050565b60006020820190506108596000830184610835565b92915050565b610868816106d8565b82525050565b6108778161067f565b82525050565b61088681610719565b82525050565b610895816106b8565b82525050565b610100820160008201516108b2600085018261085f565b5060208201516108c5602085018261085f565b5060408201516108d8604085018261086e565b5060608201516108eb606085018261085f565b5060808201516108fe608085018261087d565b5060a082015161091160a085018261087d565b5060c082015161092460c085018261087d565b5060e082015161093760e085018261088c565b50505050565b600061010082019050610953600083018461089b565b92915050565b60008151905061096881610723565b92915050565b60006020828403121561098457610983610714565b5b600061099284828501610959565b91505092915050565b60006060820190506109b060008301866106ea565b6109bd60208301856106ea565b6109ca60408301846107bb565b949350505050565b600081519050919050565b600081905092915050565b60005b83811015610a065780820151818401526020810190506109eb565b60008484015250505050565b6000610a1d826109d2565b610a2781856109dd565b9350610a378185602086016109e8565b80840191505092915050565b6000610a4f8284610a12565b915081905092915050565b60008115159050919050565b610a6f81610a5a565b8114610a7a57600080fd5b50565b600081519050610a8c81610a66565b92915050565b600060208284031215610aa857610aa7610714565b5b6000610ab684828501610a7d565b91505092915050565b600082825260208201905092915050565b7f5354460000000000000000000000000000000000000000000000000000000000600082015250565b6000610b06600383610abf565b9150610b1182610ad0565b602082019050919050565b60006020820190508181036000830152610b3581610af9565b9050919050565b6000604082019050610b5160008301856106ea565b610b5e60208301846107bb565b9392505050565b7f5341000000000000000000000000000000000000000000000000000000000000600082015250565b6000610b9b600283610abf565b9150610ba682610b65565b602082019050919050565b60006020820190508181036000830152610bca81610b8e565b905091905056fea2646970667358221220c10e338fa0137026ab905f0d10998a8656380c0969959e182104bfaafb2820af64736f6c63430008130033",
  "linkReferences": {},
  "deployedLinkReferences": {}
}