{
  "_format": "hh-sol-artifact-1",
  "contractName": "UniswapInteractions",
  "sourceName": "contracts/UniswapInteractions.sol",
  "abi": [
    {
      "inputs": [],
      "stateMutability": "nonpayable",
      "type": "constructor"
    },
    {
      "inputs": [],
      "name": "BCT",
      "outputs": [
        {
          "internalType": "address",
          "name": "",
          "type": "address"
        }
      ],
      "stateMutability": "view",
      "type": "function"
    },
    {
      "inputs": [],
      "name": "WMATIC",
      "outputs": [
        {
          "internalType": "address",
          "name": "",
          "type": "address"
        }
      ],
      "stateMutability": "view",
      "type": "function"
    },
    {
      "inputs": [],
      "name": "poolFee",
      "outputs": [
        {
          "internalType": "uint24",
          "name": "",
          "type": "uint24"
        }
      ],
      "stateMutability": "view",
      "type": "function"
    },
    {
      "inputs": [],
      "name": "routerAddress",
      "outputs": [
        {
          "internalType": "address",
          "name": "",
          "type": "address"
        }
      ],
      "stateMutability": "view",
      "type": "function"
    },
    {
      "inputs": [
        {
          "internalType": "uint256",
          "name": "amountIn",
          "type": "uint256"
        }
      ],
      "name": "swapExactInputSingle",
      "outputs": [
        {
          "internalType": "uint256",
          "name": "amountOut",
          "type": "uint256"
        }
      ],
      "stateMutability": "nonpayable",
      "type": "function"
    },
    {
      "inputs": [],
      "name": "swapRouter",
      "outputs": [
        {
          "internalType": "contract ISwapRouter",
          "name": "",
          "type": "address"
        }
      ],
      "stateMutability": "view",
      "type": "function"
    },
    {
      "inputs": [],
      "name": "wmaticToken",
      "outputs": [
        {
          "internalType": "contract IERC20",
          "name": "",
          "type": "address"
        }
      ],
      "stateMutability": "view",
      "type": "function"
    }
  ],
  "bytecode": "0x60a060405273e592427a0aece92de3edee1f18e0157c0586156473ffffffffffffffffffffffffffffffffffffffff1660809073ffffffffffffffffffffffffffffffffffffffff16815250730d500b1d8e8ef31e21c99d1db9a6444d3adf12706000806101000a81548173ffffffffffffffffffffffffffffffffffffffff021916908373ffffffffffffffffffffffffffffffffffffffff1602179055503480156100ab57600080fd5b50608051610c396100d5600039600081816101f0015281816102de01526103e50152610c396000f3fe608060405234801561001057600080fd5b506004361061007d5760003560e01c80634d95cad91161005b5780634d95cad9146100dc57806373bd43ad146100fa578063abf4be011461012a578063c31c9c07146101485761007d565b8063089fe6aa146100825780633268cc56146100a05780633b704588146100be575b600080fd5b61008a610166565b60405161009791906106d2565b60405180910390f35b6100a861016c565b6040516100b5919061072e565b60405180910390f35b6100c6610184565b6040516100d3919061072e565b60405180910390f35b6100e461019c565b6040516100f1919061072e565b60405180910390f35b610114600480360381019061010f9190610784565b6101b4565b60405161012191906107c0565b60405180910390f35b6101326103bf565b60405161013f919061083a565b60405180910390f35b6101506103e3565b60405161015d9190610876565b60405180910390f35b610bb881565b73e592427a0aece92de3edee1f18e0157c0586156481565b732f800db0fdb5223b3c3f354886d907a671414a7f81565b730d500b1d8e8ef31e21c99d1db9a6444d3adf127081565b60006101d6730d500b1d8e8ef31e21c99d1db9a6444d3adf1270333085610407565b610215730d500b1d8e8ef31e21c99d1db9a6444d3adf12707f00000000000000000000000000000000000000000000000000000000000000008461055f565b6000604051806101000160405280730d500b1d8e8ef31e21c99d1db9a6444d3adf127073ffffffffffffffffffffffffffffffffffffffff168152602001732f800db0fdb5223b3c3f354886d907a671414a7f73ffffffffffffffffffffffffffffffffffffffff168152602001610bb862ffffff1681526020013073ffffffffffffffffffffffffffffffffffffffff16815260200142815260200184815260200160008152602001600073ffffffffffffffffffffffffffffffffffffffff1681525090507f000000000000000000000000000000000000000000000000000000000000000073ffffffffffffffffffffffffffffffffffffffff1663414bf389826040518263ffffffff1660e01b8152600401610335919061096f565b6020604051808303816000875af1158015610354573d6000803e3d6000fd5b505050506040513d601f19601f8201168201806040525081019061037891906109a0565b9150610399732f800db0fdb5223b3c3f354886d907a671414a7f308561055f565b6103b9732f800db0fdb5223b3c3f354886d907a671414a7f303385610407565b50919050565b60008054906101000a900473ffffffffffffffffffffffffffffffffffffffff1681565b7f000000000000000000000000000000000000000000000000000000000000000081565b6000808573ffffffffffffffffffffffffffffffffffffffff166323b872dd60e01b86868660405160240161043e939291906109cd565b604051602081830303815290604052907bffffffffffffffffffffffffffffffffffffffffffffffffffffffff19166020820180517bffffffffffffffffffffffffffffffffffffffffffffffffffffffff83818316178352505050506040516104a89190610a75565b6000604051808303816000865af19150503d80600081146104e5576040519150601f19603f3d011682016040523d82523d6000602084013e6104ea565b606091505b509150915081801561051857506000815114806105175750808060200190518101906105169190610ac4565b5b5b610557576040517f08c379a000000000000000000000000000000000000000000000000000000000815260040161054e90610b4e565b60405180910390fd5b505050505050565b6000808473ffffffffffffffffffffffffffffffffffffffff1663095ea7b360e01b8585604051602401610594929190610b6e565b604051602081830303815290604052907bffffffffffffffffffffffffffffffffffffffffffffffffffffffff19166020820180517bffffffffffffffffffffffffffffffffffffffffffffffffffffffff83818316178352505050506040516105fe9190610a75565b6000604051808303816000865af19150503d806000811461063b576040519150601f19603f3d011682016040523d82523d6000602084013e610640565b606091505b509150915081801561066e575060008151148061066d57508080602001905181019061066c9190610ac4565b5b5b6106ad576040517f08c379a00000000000000000000000000000000000000000000000000000000081526004016106a490610be3565b60405180910390fd5b5050505050565b600062ffffff82169050919050565b6106cc816106b4565b82525050565b60006020820190506106e760008301846106c3565b92915050565b600073ffffffffffffffffffffffffffffffffffffffff82169050919050565b6000610718826106ed565b9050919050565b6107288161070d565b82525050565b6000602082019050610743600083018461071f565b92915050565b600080fd5b6000819050919050565b6107618161074e565b811461076c57600080fd5b50565b60008135905061077e81610758565b92915050565b60006020828403121561079a57610799610749565b5b60006107a88482850161076f565b91505092915050565b6107ba8161074e565b82525050565b60006020820190506107d560008301846107b1565b92915050565b6000819050919050565b60006108006107fb6107f6846106ed565b6107db565b6106ed565b9050919050565b6000610812826107e5565b9050919050565b600061082482610807565b9050919050565b61083481610819565b82525050565b600060208201905061084f600083018461082b565b92915050565b600061086082610807565b9050919050565b61087081610855565b82525050565b600060208201905061088b6000830184610867565b92915050565b61089a8161070d565b82525050565b6108a9816106b4565b82525050565b6108b88161074e565b82525050565b6108c7816106ed565b82525050565b610100820160008201516108e46000850182610891565b5060208201516108f76020850182610891565b50604082015161090a60408501826108a0565b50606082015161091d6060850182610891565b50608082015161093060808501826108af565b5060a082015161094360a08501826108af565b5060c082015161095660c08501826108af565b5060e082015161096960e08501826108be565b50505050565b60006101008201905061098560008301846108cd565b92915050565b60008151905061099a81610758565b92915050565b6000602082840312156109b6576109b5610749565b5b60006109c48482850161098b565b91505092915050565b60006060820190506109e2600083018661071f565b6109ef602083018561071f565b6109fc60408301846107b1565b949350505050565b600081519050919050565b600081905092915050565b60005b83811015610a38578082015181840152602081019050610a1d565b60008484015250505050565b6000610a4f82610a04565b610a598185610a0f565b9350610a69818560208601610a1a565b80840191505092915050565b6000610a818284610a44565b915081905092915050565b60008115159050919050565b610aa181610a8c565b8114610aac57600080fd5b50565b600081519050610abe81610a98565b92915050565b600060208284031215610ada57610ad9610749565b5b6000610ae884828501610aaf565b91505092915050565b600082825260208201905092915050565b7f5354460000000000000000000000000000000000000000000000000000000000600082015250565b6000610b38600383610af1565b9150610b4382610b02565b602082019050919050565b60006020820190508181036000830152610b6781610b2b565b9050919050565b6000604082019050610b83600083018561071f565b610b9060208301846107b1565b9392505050565b7f5341000000000000000000000000000000000000000000000000000000000000600082015250565b6000610bcd600283610af1565b9150610bd882610b97565b602082019050919050565b60006020820190508181036000830152610bfc81610bc0565b905091905056fea2646970667358221220b101655b2c4a97effa30f9bb17a3d382891e54a1c3a06e2f25d02d056e8f14bf64736f6c63430008130033",
  "linkReferences": {},
  "deployedLinkReferences": {}
}