{
  "_format": "hh-sol-artifact-1",
  "contractName": "AaveMarketInteractions",
  "sourceName": "contracts/AaveMarketInteractions.sol",
  "abi": [
    {
      "inputs": [],
      "stateMutability": "nonpayable",
      "type": "constructor"
    },
    {
      "inputs": [],
      "name": "ADDRESSES_PROVIDER",
      "outputs": [
        {
          "internalType": "contract IPoolAddressesProvider",
          "name": "",
          "type": "address"
        }
      ],
      "stateMutability": "view",
      "type": "function"
    },
    {
      "inputs": [],
      "name": "POOL",
      "outputs": [
        {
          "internalType": "contract IPool",
          "name": "",
          "type": "address"
        }
      ],
      "stateMutability": "view",
      "type": "function"
    },
    {
      "inputs": [
        {
          "internalType": "address",
          "name": "_poolContractAddress",
          "type": "address"
        }
      ],
      "name": "allowanceUSDC",
      "outputs": [
        {
          "internalType": "uint256",
          "name": "",
          "type": "uint256"
        }
      ],
      "stateMutability": "view",
      "type": "function"
    },
    {
      "inputs": [
        {
          "internalType": "uint256",
          "name": "_amount",
          "type": "uint256"
        },
        {
          "internalType": "address",
          "name": "_poolContractAddress",
          "type": "address"
        }
      ],
      "name": "approveUSDC",
      "outputs": [
        {
          "internalType": "bool",
          "name": "",
          "type": "bool"
        }
      ],
      "stateMutability": "nonpayable",
      "type": "function"
    },
    {
      "inputs": [
        {
          "internalType": "address",
          "name": "_tokenAddress",
          "type": "address"
        }
      ],
      "name": "getBalance",
      "outputs": [
        {
          "internalType": "uint256",
          "name": "",
          "type": "uint256"
        }
      ],
      "stateMutability": "view",
      "type": "function"
    },
    {
      "inputs": [
        {
          "internalType": "address",
          "name": "_userAddress",
          "type": "address"
        }
      ],
      "name": "getUserAccountData",
      "outputs": [
        {
          "internalType": "uint256",
          "name": "totalCollateralBase",
          "type": "uint256"
        },
        {
          "internalType": "uint256",
          "name": "totalDebtBase",
          "type": "uint256"
        },
        {
          "internalType": "uint256",
          "name": "availableBorrowsBase",
          "type": "uint256"
        },
        {
          "internalType": "uint256",
          "name": "currentLiquidationThreshold",
          "type": "uint256"
        },
        {
          "internalType": "uint256",
          "name": "ltv",
          "type": "uint256"
        },
        {
          "internalType": "uint256",
          "name": "healthFactor",
          "type": "uint256"
        }
      ],
      "stateMutability": "view",
      "type": "function"
    },
    {
      "inputs": [
        {
          "internalType": "address",
          "name": "_tokenAddress",
          "type": "address"
        },
        {
          "internalType": "uint256",
          "name": "_amount",
          "type": "uint256"
        }
      ],
      "name": "supplyLiquidity",
      "outputs": [],
      "stateMutability": "nonpayable",
      "type": "function"
    },
    {
      "inputs": [
        {
          "internalType": "address",
          "name": "_tokenAddress",
          "type": "address"
        }
      ],
      "name": "withdraw",
      "outputs": [],
      "stateMutability": "nonpayable",
      "type": "function"
    },
    {
      "inputs": [
        {
          "internalType": "address",
          "name": "_tokenAddress",
          "type": "address"
        },
        {
          "internalType": "uint256",
          "name": "_amount",
          "type": "uint256"
        }
      ],
      "name": "withdrawLiquidity",
      "outputs": [
        {
          "internalType": "uint256",
          "name": "",
          "type": "uint256"
        }
      ],
      "stateMutability": "nonpayable",
      "type": "function"
    },
    {
      "stateMutability": "payable",
      "type": "receive"
    }
  ],
  "bytecode": "0x61010060405273e9dce89b076ba6107bb64ef30678efec1193923473ffffffffffffffffffffffffffffffffffffffff1660c09073ffffffffffffffffffffffffffffffffffffffff1681525073eb7a892bb04a8f836bdeebbf60897a7af1bf5d7f73ffffffffffffffffffffffffffffffffffffffff1660e09073ffffffffffffffffffffffffffffffffffffffff1681525034801561009f57600080fd5b5060e05173ffffffffffffffffffffffffffffffffffffffff1660808173ffffffffffffffffffffffffffffffffffffffff168152505060805173ffffffffffffffffffffffffffffffffffffffff1663026b1d5f6040518163ffffffff1660e01b8152600401602060405180830381865afa158015610123573d6000803e3d6000fd5b505050506040513d601f19601f820116820180604052508101906101479190610265565b73ffffffffffffffffffffffffffffffffffffffff1660a08173ffffffffffffffffffffffffffffffffffffffff1681525050336000806101000a81548173ffffffffffffffffffffffffffffffffffffffff021916908373ffffffffffffffffffffffffffffffffffffffff16021790555060c051600160006101000a81548173ffffffffffffffffffffffffffffffffffffffff021916908373ffffffffffffffffffffffffffffffffffffffff160217905550610292565b600080fd5b600073ffffffffffffffffffffffffffffffffffffffff82169050919050565b600061023282610207565b9050919050565b61024281610227565b811461024d57600080fd5b50565b60008151905061025f81610239565b92915050565b60006020828403121561027b5761027a610202565b5b600061028984828501610250565b91505092915050565b60805160a05160c05160e051610e0f620002db6000396000505060005050600081816103510152818161058b0152818161066a015261070c015260006102760152610e0f6000f3fe60806040526004361061008a5760003560e01c80637535d246116100595780637535d24614610164578063829aee421461018f578063b39e3771146101cc578063bf92857c146101f5578063f8b2cb4f1461023757610091565b80630542975c1461009657806305e2286d146100c157806306d47de9146100fe57806351cff8d91461013b57610091565b3661009157005b600080fd5b3480156100a257600080fd5b506100ab610274565b6040516100b891906108bb565b60405180910390f35b3480156100cd57600080fd5b506100e860048036038101906100e39190610919565b610298565b6040516100f5919061095f565b60405180910390f35b34801561010a57600080fd5b50610125600480360381019061012091906109a6565b61033f565b604051610132919061095f565b60405180910390f35b34801561014757600080fd5b50610162600480360381019061015d9190610919565b6103fa565b005b34801561017057600080fd5b50610179610589565b6040516101869190610a07565b60405180910390f35b34801561019b57600080fd5b506101b660048036038101906101b19190610a22565b6105ad565b6040516101c39190610a7d565b60405180910390f35b3480156101d857600080fd5b506101f360048036038101906101ee91906109a6565b610657565b005b34801561020157600080fd5b5061021c60048036038101906102179190610919565b610701565b60405161022e96959493929190610a98565b60405180910390f35b34801561024357600080fd5b5061025e60048036038101906102599190610919565b6107b9565b60405161026b919061095f565b60405180910390f35b7f000000000000000000000000000000000000000000000000000000000000000081565b6000600160009054906101000a900473ffffffffffffffffffffffffffffffffffffffff1673ffffffffffffffffffffffffffffffffffffffff1663dd62ed3e30846040518363ffffffff1660e01b81526004016102f7929190610b08565b602060405180830381865afa158015610314573d6000803e3d6000fd5b505050506040513d601f19601f820116820180604052508101906103389190610b46565b9050919050565b600080839050600083905060003090507f000000000000000000000000000000000000000000000000000000000000000073ffffffffffffffffffffffffffffffffffffffff166369328dec8484846040518463ffffffff1660e01b81526004016103ac93929190610b73565b6020604051808303816000875af11580156103cb573d6000803e3d6000fd5b505050506040513d601f19601f820116820180604052508101906103ef9190610b46565b935050505092915050565b60008054906101000a900473ffffffffffffffffffffffffffffffffffffffff1673ffffffffffffffffffffffffffffffffffffffff163373ffffffffffffffffffffffffffffffffffffffff1614610488576040517f08c379a000000000000000000000000000000000000000000000000000000000815260040161047f90610c2d565b60405180910390fd5b60008190508073ffffffffffffffffffffffffffffffffffffffff1663a9059cbb338373ffffffffffffffffffffffffffffffffffffffff166370a08231306040518263ffffffff1660e01b81526004016104e39190610c4d565b602060405180830381865afa158015610500573d6000803e3d6000fd5b505050506040513d601f19601f820116820180604052508101906105249190610b46565b6040518363ffffffff1660e01b8152600401610541929190610c68565b6020604051808303816000875af1158015610560573d6000803e3d6000fd5b505050506040513d601f19601f820116820180604052508101906105849190610cbd565b505050565b7f000000000000000000000000000000000000000000000000000000000000000081565b6000600160009054906101000a900473ffffffffffffffffffffffffffffffffffffffff1673ffffffffffffffffffffffffffffffffffffffff1663095ea7b383856040518363ffffffff1660e01b815260040161060c929190610c68565b6020604051808303816000875af115801561062b573d6000803e3d6000fd5b505050506040513d601f19601f8201168201806040525081019061064f9190610cbd565b905092915050565b60008290506000829050600030905060007f000000000000000000000000000000000000000000000000000000000000000073ffffffffffffffffffffffffffffffffffffffff1663617ba037858585856040518563ffffffff1660e01b81526004016106c79493929190610d07565b600060405180830381600087803b1580156106e157600080fd5b505af11580156106f5573d6000803e3d6000fd5b50505050505050505050565b6000806000806000807f000000000000000000000000000000000000000000000000000000000000000073ffffffffffffffffffffffffffffffffffffffff1663bf92857c886040518263ffffffff1660e01b81526004016107639190610c4d565b60c060405180830381865afa158015610780573d6000803e3d6000fd5b505050506040513d601f19601f820116820180604052508101906107a49190610d4c565b95509550955095509550955091939550919395565b60008173ffffffffffffffffffffffffffffffffffffffff166370a08231306040518263ffffffff1660e01b81526004016107f49190610c4d565b602060405180830381865afa158015610811573d6000803e3d6000fd5b505050506040513d601f19601f820116820180604052508101906108359190610b46565b9050919050565b600073ffffffffffffffffffffffffffffffffffffffff82169050919050565b6000819050919050565b600061088161087c6108778461083c565b61085c565b61083c565b9050919050565b600061089382610866565b9050919050565b60006108a582610888565b9050919050565b6108b58161089a565b82525050565b60006020820190506108d060008301846108ac565b92915050565b600080fd5b60006108e68261083c565b9050919050565b6108f6816108db565b811461090157600080fd5b50565b600081359050610913816108ed565b92915050565b60006020828403121561092f5761092e6108d6565b5b600061093d84828501610904565b91505092915050565b6000819050919050565b61095981610946565b82525050565b60006020820190506109746000830184610950565b92915050565b61098381610946565b811461098e57600080fd5b50565b6000813590506109a08161097a565b92915050565b600080604083850312156109bd576109bc6108d6565b5b60006109cb85828601610904565b92505060206109dc85828601610991565b9150509250929050565b60006109f182610888565b9050919050565b610a01816109e6565b82525050565b6000602082019050610a1c60008301846109f8565b92915050565b60008060408385031215610a3957610a386108d6565b5b6000610a4785828601610991565b9250506020610a5885828601610904565b9150509250929050565b60008115159050919050565b610a7781610a62565b82525050565b6000602082019050610a926000830184610a6e565b92915050565b600060c082019050610aad6000830189610950565b610aba6020830188610950565b610ac76040830187610950565b610ad46060830186610950565b610ae16080830185610950565b610aee60a0830184610950565b979650505050505050565b610b02816108db565b82525050565b6000604082019050610b1d6000830185610af9565b610b2a6020830184610af9565b9392505050565b600081519050610b408161097a565b92915050565b600060208284031215610b5c57610b5b6108d6565b5b6000610b6a84828501610b31565b91505092915050565b6000606082019050610b886000830186610af9565b610b956020830185610950565b610ba26040830184610af9565b949350505050565b600082825260208201905092915050565b7f4f6e6c792074686520636f6e7472616374206f776e65722063616e2063616c6c60008201527f20746869732066756e6374696f6e000000000000000000000000000000000000602082015250565b6000610c17602e83610baa565b9150610c2282610bbb565b604082019050919050565b60006020820190508181036000830152610c4681610c0a565b9050919050565b6000602082019050610c626000830184610af9565b92915050565b6000604082019050610c7d6000830185610af9565b610c8a6020830184610950565b9392505050565b610c9a81610a62565b8114610ca557600080fd5b50565b600081519050610cb781610c91565b92915050565b600060208284031215610cd357610cd26108d6565b5b6000610ce184828501610ca8565b91505092915050565b600061ffff82169050919050565b610d0181610cea565b82525050565b6000608082019050610d1c6000830187610af9565b610d296020830186610950565b610d366040830185610af9565b610d436060830184610cf8565b95945050505050565b60008060008060008060c08789031215610d6957610d686108d6565b5b6000610d7789828a01610b31565b9650506020610d8889828a01610b31565b9550506040610d9989828a01610b31565b9450506060610daa89828a01610b31565b9350506080610dbb89828a01610b31565b92505060a0610dcc89828a01610b31565b915050929550929550929556fea2646970667358221220985d11fb667cae2bb5715ba993e01d7ba2b22d614dd1e129b3ffdd035c0b9a5b64736f6c63430008130033",
  "linkReferences": {},
  "deployedLinkReferences": {}
}